{
  "contractName": "Base",
  "abi": [
    {
      "inputs": [],
      "stateMutability": "nonpayable",
      "type": "constructor"
    },
    {
      "inputs": [
        {
          "internalType": "address",
          "name": "",
          "type": "address"
        },
        {
          "internalType": "address",
          "name": "",
          "type": "address"
        }
      ],
      "name": "_docs_permitted",
      "outputs": [
        {
          "internalType": "uint256",
          "name": "aadhaarproof",
          "type": "uint256"
        },
        {
          "internalType": "uint256",
          "name": "birthproof",
          "type": "uint256"
        }
      ],
      "stateMutability": "view",
      "type": "function",
      "constant": true
    },
    {
      "inputs": [
        {
          "internalType": "address",
          "name": "",
          "type": "address"
        },
        {
          "internalType": "address",
          "name": "",
          "type": "address"
        }
      ],
      "name": "_docs_permitted_tb",
      "outputs": [
        {
          "internalType": "uint256",
          "name": "aadhaarproof",
          "type": "uint256"
        },
        {
          "internalType": "uint256",
          "name": "birthproof",
          "type": "uint256"
        }
      ],
      "stateMutability": "view",
      "type": "function",
      "constant": true
    },
    {
      "inputs": [
        {
          "internalType": "address",
          "name": "",
          "type": "address"
        },
        {
          "internalType": "address",
          "name": "",
          "type": "address"
        }
      ],
      "name": "docsRequestedDB",
      "outputs": [
        {
          "internalType": "uint256",
          "name": "aadhaarproof",
          "type": "uint256"
        },
        {
          "internalType": "uint256",
          "name": "birthproof",
          "type": "uint256"
        }
      ],
      "stateMutability": "view",
      "type": "function",
      "constant": true
    },
    {
      "inputs": [],
      "name": "gov",
      "outputs": [
        {
          "internalType": "uint256",
          "name": "",
          "type": "uint256"
        }
      ],
      "stateMutability": "view",
      "type": "function",
      "constant": true
    },
    {
      "inputs": [
        {
          "internalType": "uint256",
          "name": "",
          "type": "uint256"
        }
      ],
      "name": "govtOrgsList",
      "outputs": [
        {
          "internalType": "address",
          "name": "",
          "type": "address"
        }
      ],
      "stateMutability": "view",
      "type": "function",
      "constant": true
    },
    {
      "inputs": [
        {
          "internalType": "address",
          "name": "",
          "type": "address"
        }
      ],
      "name": "govtorgLogin",
      "outputs": [
        {
          "internalType": "string",
          "name": "usern",
          "type": "string"
        },
        {
          "internalType": "string",
          "name": "userp",
          "type": "string"
        }
      ],
      "stateMutability": "view",
      "type": "function",
      "constant": true
    },
    {
      "inputs": [
        {
          "internalType": "address",
          "name": "",
          "type": "address"
        }
      ],
      "name": "govtorgLoginStatus",
      "outputs": [
        {
          "internalType": "uint256",
          "name": "",
          "type": "uint256"
        }
      ],
      "stateMutability": "view",
      "type": "function",
      "constant": true
    },
    {
      "inputs": [
        {
          "internalType": "address",
          "name": "",
          "type": "address"
        }
      ],
      "name": "govtorgRegisterStatus",
      "outputs": [
        {
          "internalType": "uint256",
          "name": "",
          "type": "uint256"
        }
      ],
      "stateMutability": "view",
      "type": "function",
      "constant": true
    },
    {
      "inputs": [
        {
          "internalType": "string",
          "name": "",
          "type": "string"
        }
      ],
      "name": "govtorgRegisteredStatus",
      "outputs": [
        {
          "internalType": "uint256",
          "name": "",
          "type": "uint256"
        }
      ],
      "stateMutability": "view",
      "type": "function",
      "constant": true
    },
    {
      "inputs": [],
      "name": "govtorgsCount",
      "outputs": [
        {
          "internalType": "uint256",
          "name": "",
          "type": "uint256"
        }
      ],
      "stateMutability": "view",
      "type": "function",
      "constant": true
    },
    {
      "inputs": [
        {
          "internalType": "address",
          "name": "",
          "type": "address"
        }
      ],
      "name": "matchAddrToEmail",
      "outputs": [
        {
          "internalType": "string",
          "name": "",
          "type": "string"
        }
      ],
      "stateMutability": "view",
      "type": "function",
      "constant": true
    },
    {
      "inputs": [
        {
          "internalType": "address",
          "name": "",
          "type": "address"
        },
        {
          "internalType": "uint256",
          "name": "",
          "type": "uint256"
        }
      ],
      "name": "myDocuments",
      "outputs": [
        {
          "internalType": "uint256",
          "name": "id",
          "type": "uint256"
        },
        {
          "internalType": "string",
          "name": "fileDocName",
          "type": "string"
        },
        {
          "internalType": "string",
          "name": "regUniqueNum",
          "type": "string"
        },
        {
          "internalType": "bool",
          "name": "initialVerification",
          "type": "bool"
        }
      ],
      "stateMutability": "view",
      "type": "function",
      "constant": true
    },
    {
      "inputs": [],
      "name": "owner",
      "outputs": [
        {
          "internalType": "address",
          "name": "",
          "type": "address"
        }
      ],
      "stateMutability": "view",
      "type": "function",
      "constant": true
    },
    {
      "inputs": [
        {
          "internalType": "address",
          "name": "",
          "type": "address"
        }
      ],
      "name": "userDetails",
      "outputs": [
        {
          "internalType": "string",
          "name": "userEmailId",
          "type": "string"
        },
        {
          "internalType": "string",
          "name": "userpassword",
          "type": "string"
        },
        {
          "internalType": "string",
          "name": "userFullName",
          "type": "string"
        },
        {
          "internalType": "uint256",
          "name": "age",
          "type": "uint256"
        },
        {
          "internalType": "string",
          "name": "dateOfBirth",
          "type": "string"
        },
        {
          "internalType": "string",
          "name": "userHouseAddress",
          "type": "string"
        },
        {
          "internalType": "uint256",
          "name": "mobileNumber",
          "type": "uint256"
        },
        {
          "internalType": "uint256",
          "name": "aadharNum",
          "type": "uint256"
        }
      ],
      "stateMutability": "view",
      "type": "function",
      "constant": true
    },
    {
      "inputs": [
        {
          "internalType": "address",
          "name": "",
          "type": "address"
        }
      ],
      "name": "userLogin",
      "outputs": [
        {
          "internalType": "string",
          "name": "usern",
          "type": "string"
        },
        {
          "internalType": "string",
          "name": "userp",
          "type": "string"
        }
      ],
      "stateMutability": "view",
      "type": "function",
      "constant": true
    },
    {
      "inputs": [
        {
          "internalType": "address",
          "name": "",
          "type": "address"
        }
      ],
      "name": "userLoginStatus",
      "outputs": [
        {
          "internalType": "uint256",
          "name": "",
          "type": "uint256"
        }
      ],
      "stateMutability": "view",
      "type": "function",
      "constant": true
    },
    {
      "inputs": [
        {
          "internalType": "address",
          "name": "",
          "type": "address"
        }
      ],
      "name": "userRegisterStatus",
      "outputs": [
        {
          "internalType": "uint256",
          "name": "",
          "type": "uint256"
        }
      ],
      "stateMutability": "view",
      "type": "function",
      "constant": true
    },
    {
      "inputs": [
        {
          "internalType": "string",
          "name": "",
          "type": "string"
        }
      ],
      "name": "userRegisteredStatus",
      "outputs": [
        {
          "internalType": "uint256",
          "name": "",
          "type": "uint256"
        }
      ],
      "stateMutability": "view",
      "type": "function",
      "constant": true
    },
    {
      "inputs": [],
      "name": "usersCount",
      "outputs": [
        {
          "internalType": "uint256",
          "name": "",
          "type": "uint256"
        }
      ],
      "stateMutability": "view",
      "type": "function",
      "constant": true
    },
    {
      "inputs": [
        {
          "internalType": "uint256",
          "name": "num",
          "type": "uint256"
        }
      ],
      "name": "getOrgAt",
      "outputs": [
        {
          "internalType": "address",
          "name": "",
          "type": "address"
        }
      ],
      "stateMutability": "view",
      "type": "function",
      "constant": true
    },
    {
      "inputs": [],
      "name": "logout",
      "outputs": [],
      "stateMutability": "nonpayable",
      "type": "function"
    }
  ],
  "bytecode": "0x608060405234801561001057600080fd5b50600080546001600160a01b03191633178155600f55610dad806100356000396000f3fe608060405234801561001057600080fd5b50600436106101375760003560e01c8063749cf99c116100b85780639154f0ab1161007c5780639154f0ab1461032d578063b7d0ac9d14610340578063d376ebc314610363578063e6c4546c1461038c578063ec591908146103be578063f833483f146103de57600080fd5b8063749cf99c1461028a57806378f751f2146102d1578063873c50f4146102da5780638da5cb5b146102fa578063914556db1461030d57600080fd5b806348dec2a7116100ff57806348dec2a7146101cd5780635551b53b146101f45780635d18a767146102355780636ba13a82146102565780636d6cdb8f1461025f57600080fd5b806312d43a511461013c57806318025cfc146101585780631f3c99c3146101785780632c1acdaa146101825780633f462b2c146101a2575b600080fd5b610145600f5481565b6040519081526020015b60405180910390f35b61016b610166366004610a8f565b610410565b60405161014f9190610afe565b6101806104aa565b005b610145610190366004610a8f565b60066020526000908152604090205481565b6101456101b0366004610b27565b805160208183018101805160048252928201919093012091525481565b6101e06101db366004610a8f565b6104fd565b60405161014f989796959493929190610bd8565b61021d610202366004610c5a565b6010602052600090815260409020546001600160a01b031681565b6040516001600160a01b03909116815260200161014f565b610248610243366004610a8f565b6107e5565b60405161014f929190610c73565b61014560115481565b61014561026d366004610b27565b805160208183018101805160088252928201919093012091525481565b6102bc610298366004610ca1565b600d6020908152600092835260408084209091529082529020805460019091015482565b6040805192835260208301919091520161014f565b61014560125481565b6101456102e8366004610a8f565b60056020526000908152604090205481565b60005461021d906001600160a01b031681565b61014561031b366004610a8f565b60096020526000908152604090205481565b61024861033b366004610a8f565b610911565b61035361034e366004610cd4565b61092c565b60405161014f9493929190610cfe565b61021d610371366004610c5a565b6000908152601060205260409020546001600160a01b031690565b6102bc61039a366004610ca1565b600c6020908152600092835260408084209091529082529020805460019091015482565b6101456103cc366004610a8f565b600a6020526000908152604090205481565b6102bc6103ec366004610ca1565b600e6020908152600092835260408084209091529082529020805460019091015482565b6003602052600090815260409020805461042990610d3d565b80601f016020809104026020016040519081016040528092919081815260200182805461045590610d3d565b80156104a25780601f10610477576101008083540402835291602001916104a2565b820191906000526020600020905b81548152906001019060200180831161048557829003601f168201915b505050505081565b336000908152600560205260409020546001036104d35733600090815260056020526040812055565b336000908152600a60205260409020546001036104fb57336000908152600a60205260408120555b565b60016020526000908152604090208054819061051890610d3d565b80601f016020809104026020016040519081016040528092919081815260200182805461054490610d3d565b80156105915780601f1061056657610100808354040283529160200191610591565b820191906000526020600020905b81548152906001019060200180831161057457829003601f168201915b5050505050908060010180546105a690610d3d565b80601f01602080910402602001604051908101604052809291908181526020018280546105d290610d3d565b801561061f5780601f106105f45761010080835404028352916020019161061f565b820191906000526020600020905b81548152906001019060200180831161060257829003601f168201915b50505050509080600201805461063490610d3d565b80601f016020809104026020016040519081016040528092919081815260200182805461066090610d3d565b80156106ad5780601f10610682576101008083540402835291602001916106ad565b820191906000526020600020905b81548152906001019060200180831161069057829003601f168201915b5050505050908060030154908060040180546106c890610d3d565b80601f01602080910402602001604051908101604052809291908181526020018280546106f490610d3d565b80156107415780601f1061071657610100808354040283529160200191610741565b820191906000526020600020905b81548152906001019060200180831161072457829003601f168201915b50505050509080600501805461075690610d3d565b80601f016020809104026020016040519081016040528092919081815260200182805461078290610d3d565b80156107cf5780601f106107a4576101008083540402835291602001916107cf565b820191906000526020600020905b8154815290600101906020018083116107b257829003601f168201915b5050505050908060060154908060070154905088565b60076020526000908152604090208054819061080090610d3d565b80601f016020809104026020016040519081016040528092919081815260200182805461082c90610d3d565b80156108795780601f1061084e57610100808354040283529160200191610879565b820191906000526020600020905b81548152906001019060200180831161085c57829003601f168201915b50505050509080600101805461088e90610d3d565b80601f01602080910402602001604051908101604052809291908181526020018280546108ba90610d3d565b80156109075780601f106108dc57610100808354040283529160200191610907565b820191906000526020600020905b8154815290600101906020018083116108ea57829003601f168201915b5050505050905082565b60026020526000908152604090208054819061080090610d3d565b600b6020908152600092835260408084209091529082529020805460018201805491929161095990610d3d565b80601f016020809104026020016040519081016040528092919081815260200182805461098590610d3d565b80156109d25780601f106109a7576101008083540402835291602001916109d2565b820191906000526020600020905b8154815290600101906020018083116109b557829003601f168201915b5050505050908060020180546109e790610d3d565b80601f0160208091040260200160405190810160405280929190818152602001828054610a1390610d3d565b8015610a605780601f10610a3557610100808354040283529160200191610a60565b820191906000526020600020905b815481529060010190602001808311610a4357829003601f168201915b5050506003909301549192505060ff1684565b80356001600160a01b0381168114610a8a57600080fd5b919050565b600060208284031215610aa157600080fd5b610aaa82610a73565b9392505050565b6000815180845260005b81811015610ad757602081850181015186830182015201610abb565b81811115610ae9576000602083870101525b50601f01601f19169290920160200192915050565b602081526000610aaa6020830184610ab1565b634e487b7160e01b600052604160045260246000fd5b600060208284031215610b3957600080fd5b813567ffffffffffffffff80821115610b5157600080fd5b818401915084601f830112610b6557600080fd5b813581811115610b7757610b77610b11565b604051601f8201601f19908116603f01168101908382118183101715610b9f57610b9f610b11565b81604052828152876020848701011115610bb857600080fd5b826020860160208301376000928101602001929092525095945050505050565b6000610100808352610bec8184018c610ab1565b90508281036020840152610c00818b610ab1565b90508281036040840152610c14818a610ab1565b90508760608401528281036080840152610c2e8188610ab1565b905082810360a0840152610c428187610ab1565b60c0840195909552505060e001529695505050505050565b600060208284031215610c6c57600080fd5b5035919050565b604081526000610c866040830185610ab1565b8281036020840152610c988185610ab1565b95945050505050565b60008060408385031215610cb457600080fd5b610cbd83610a73565b9150610ccb60208401610a73565b90509250929050565b60008060408385031215610ce757600080fd5b610cf083610a73565b946020939093013593505050565b848152608060208201526000610d176080830186610ab1565b8281036040840152610d298186610ab1565b915050821515606083015295945050505050565b600181811c90821680610d5157607f821691505b602082108103610d7157634e487b7160e01b600052602260045260246000fd5b5091905056fea2646970667358221220cc42af07672b0fc030567b005812a475c087466473ebef40b4439df0106641f164736f6c634300080d0033",
  "immutableReferences": {},
  "source": "// SPDX-License-Identifier: MIT\n\npragma solidity^0.8.13;\ncontract Base {\n    address public owner;\n      \n    mapping(address=>User) public userDetails;  \n    mapping(address=>UsersLoginIDs) public userLogin;\n    mapping(address=>string) public matchAddrToEmail;\n    mapping(string=>uint) public userRegisteredStatus;\n    mapping(address=>uint) public userLoginStatus;\n    mapping(address=>uint) public userRegisterStatus;\n    \n    mapping(address=>GovtOrgLoginIDs) public govtorgLogin;\n    mapping(string=>uint) public govtorgRegisteredStatus;\n    mapping(address=>uint) public govtorgRegisterStatus;\n    mapping(address=>uint) public govtorgLoginStatus;\n    mapping(address=>mapping(uint=>FileDoc)) public myDocuments;\n    mapping(address=>mapping(address=>DocsRequestedDatabase)) public docsRequestedDB;\n    mapping(address=>mapping(address=>DocsRequestedDatabase)) public _docs_permitted;\n    mapping(address=>mapping(address=>DocsRequestedDatabase)) public _docs_permitted_tb;\n    \n    uint public gov;\n    mapping(uint=>address) public govtOrgsList;\n    \n    uint public usersCount;\n    uint public govtorgsCount;\n    constructor() {\n        owner = msg.sender;\n        gov = 0;\n    }\n    modifier onlyOwner {\n        require(msg.sender==owner);\n        _;\n    }\n    \n    struct UsersLoginIDs {\n        string usern;\n        string userp;\n    }\n    struct GovtOrgLoginIDs {\n        string usern;\n        string userp;\n    }\n   \n    struct FileDoc{\n        uint id;\n        string fileDocName;\n        string regUniqueNum;\n        bool initialVerification;\n    }\n    struct DocsRequestedDatabase{\n        uint aadhaarproof;\n        uint birthproof;\n    }\n    struct User {\n        string userEmailId;\n        string userpassword;\n        string userFullName;\n        uint age;\n        string dateOfBirth;\n        string userHouseAddress;\n        uint mobileNumber;\n        uint aadharNum;\n    }\n    function getOrgAt(uint num) public view returns(address) {\n        address at = govtOrgsList[num];\n        return at;\n    }\n    function logout() public {\n        if(userLoginStatus[msg.sender]==1){\n            userLoginStatus[msg.sender]=0;\n        }\n        else if(govtorgLoginStatus[msg.sender]==1){\n        govtorgLoginStatus[msg.sender] = 0;\n        }\n    }\n   \n}",
  "sourcePath": "/Users/rajesmanna/Downloads/Decentralized-Identity-management-master (3) 2/Decentralized-Identity-management-master/contracts/Base.sol",
  "compiler": {
    "name": "solc",
    "version": "0.8.13+commit.abaa5c0e.Emscripten.clang"
  },
  "schemaVersion": "3.4.16",
  "updatedAt": "2025-04-11T15:32:37.370Z",
  "networkType": "ethereum",
  "devdoc": {
    "kind": "dev",
    "methods": {},
    "version": 1
  },
  "userdoc": {
    "kind": "user",
    "methods": {},
    "version": 1
  }
}