{
  "contractName": "Govtorg",
  "abi": [
    {
      "inputs": [
        {
          "internalType": "address",
          "name": "",
          "type": "address"
        },
        {
          "internalType": "address",
          "name": "",
          "type": "address"
        }
      ],
      "name": "_docs_permitted",
      "outputs": [
        {
          "internalType": "uint256",
          "name": "aadhaarproof",
          "type": "uint256"
        },
        {
          "internalType": "uint256",
          "name": "birthproof",
          "type": "uint256"
        }
      ],
      "stateMutability": "view",
      "type": "function",
      "constant": true
    },
    {
      "inputs": [
        {
          "internalType": "address",
          "name": "",
          "type": "address"
        },
        {
          "internalType": "address",
          "name": "",
          "type": "address"
        }
      ],
      "name": "_docs_permitted_tb",
      "outputs": [
        {
          "internalType": "uint256",
          "name": "aadhaarproof",
          "type": "uint256"
        },
        {
          "internalType": "uint256",
          "name": "birthproof",
          "type": "uint256"
        }
      ],
      "stateMutability": "view",
      "type": "function",
      "constant": true
    },
    {
      "inputs": [],
      "name": "d1",
      "outputs": [
        {
          "internalType": "uint256",
          "name": "",
          "type": "uint256"
        }
      ],
      "stateMutability": "view",
      "type": "function",
      "constant": true
    },
    {
      "inputs": [],
      "name": "d2",
      "outputs": [
        {
          "internalType": "uint256",
          "name": "",
          "type": "uint256"
        }
      ],
      "stateMutability": "view",
      "type": "function",
      "constant": true
    },
    {
      "inputs": [
        {
          "internalType": "address",
          "name": "",
          "type": "address"
        },
        {
          "internalType": "address",
          "name": "",
          "type": "address"
        }
      ],
      "name": "docsRequestedDB",
      "outputs": [
        {
          "internalType": "uint256",
          "name": "aadhaarproof",
          "type": "uint256"
        },
        {
          "internalType": "uint256",
          "name": "birthproof",
          "type": "uint256"
        }
      ],
      "stateMutability": "view",
      "type": "function",
      "constant": true
    },
    {
      "inputs": [
        {
          "internalType": "uint256",
          "name": "num",
          "type": "uint256"
        }
      ],
      "name": "getOrgAt",
      "outputs": [
        {
          "internalType": "address",
          "name": "",
          "type": "address"
        }
      ],
      "stateMutability": "view",
      "type": "function",
      "constant": true
    },
    {
      "inputs": [],
      "name": "gov",
      "outputs": [
        {
          "internalType": "uint256",
          "name": "",
          "type": "uint256"
        }
      ],
      "stateMutability": "view",
      "type": "function",
      "constant": true
    },
    {
      "inputs": [],
      "name": "govorg_ContactNum",
      "outputs": [
        {
          "internalType": "uint256",
          "name": "",
          "type": "uint256"
        }
      ],
      "stateMutability": "view",
      "type": "function",
      "constant": true
    },
    {
      "inputs": [],
      "name": "govorg_HQ",
      "outputs": [
        {
          "internalType": "string",
          "name": "",
          "type": "string"
        }
      ],
      "stateMutability": "view",
      "type": "function",
      "constant": true
    },
    {
      "inputs": [],
      "name": "govorg_IdNum",
      "outputs": [
        {
          "internalType": "string",
          "name": "",
          "type": "string"
        }
      ],
      "stateMutability": "view",
      "type": "function",
      "constant": true
    },
    {
      "inputs": [],
      "name": "govorg_Location",
      "outputs": [
        {
          "internalType": "string",
          "name": "",
          "type": "string"
        }
      ],
      "stateMutability": "view",
      "type": "function",
      "constant": true
    },
    {
      "inputs": [],
      "name": "govorg_Name",
      "outputs": [
        {
          "internalType": "string",
          "name": "",
          "type": "string"
        }
      ],
      "stateMutability": "view",
      "type": "function",
      "constant": true
    },
    {
      "inputs": [],
      "name": "govorg_UserRequestedCount",
      "outputs": [
        {
          "internalType": "uint256",
          "name": "",
          "type": "uint256"
        }
      ],
      "stateMutability": "view",
      "type": "function",
      "constant": true
    },
    {
      "inputs": [
        {
          "internalType": "uint256",
          "name": "",
          "type": "uint256"
        }
      ],
      "name": "govtOrgsList",
      "outputs": [
        {
          "internalType": "address",
          "name": "",
          "type": "address"
        }
      ],
      "stateMutability": "view",
      "type": "function",
      "constant": true
    },
    {
      "inputs": [
        {
          "internalType": "address",
          "name": "",
          "type": "address"
        }
      ],
      "name": "govtorgDetails",
      "outputs": [
        {
          "internalType": "string",
          "name": "govtOrgEmailId",
          "type": "string"
        },
        {
          "internalType": "string",
          "name": "govtOrgPassword",
          "type": "string"
        },
        {
          "internalType": "string",
          "name": "govtOrgName",
          "type": "string"
        },
        {
          "internalType": "string",
          "name": "govtOrgIdNum",
          "type": "string"
        },
        {
          "internalType": "string",
          "name": "govtOrgLocation",
          "type": "string"
        },
        {
          "internalType": "string",
          "name": "govtOrgHeadQuarters",
          "type": "string"
        },
        {
          "internalType": "uint256",
          "name": "govtOrgContactNum",
          "type": "uint256"
        }
      ],
      "stateMutability": "view",
      "type": "function",
      "constant": true
    },
    {
      "inputs": [
        {
          "internalType": "address",
          "name": "",
          "type": "address"
        }
      ],
      "name": "govtorgLogin",
      "outputs": [
        {
          "internalType": "string",
          "name": "usern",
          "type": "string"
        },
        {
          "internalType": "string",
          "name": "userp",
          "type": "string"
        }
      ],
      "stateMutability": "view",
      "type": "function",
      "constant": true
    },
    {
      "inputs": [
        {
          "internalType": "address",
          "name": "",
          "type": "address"
        }
      ],
      "name": "govtorgLoginStatus",
      "outputs": [
        {
          "internalType": "uint256",
          "name": "",
          "type": "uint256"
        }
      ],
      "stateMutability": "view",
      "type": "function",
      "constant": true
    },
    {
      "inputs": [
        {
          "internalType": "address",
          "name": "",
          "type": "address"
        }
      ],
      "name": "govtorgRegisterStatus",
      "outputs": [
        {
          "internalType": "uint256",
          "name": "",
          "type": "uint256"
        }
      ],
      "stateMutability": "view",
      "type": "function",
      "constant": true
    },
    {
      "inputs": [
        {
          "internalType": "string",
          "name": "",
          "type": "string"
        }
      ],
      "name": "govtorgRegisteredStatus",
      "outputs": [
        {
          "internalType": "uint256",
          "name": "",
          "type": "uint256"
        }
      ],
      "stateMutability": "view",
      "type": "function",
      "constant": true
    },
    {
      "inputs": [],
      "name": "govtorgsCount",
      "outputs": [
        {
          "internalType": "uint256",
          "name": "",
          "type": "uint256"
        }
      ],
      "stateMutability": "view",
      "type": "function",
      "constant": true
    },
    {
      "inputs": [],
      "name": "logout",
      "outputs": [],
      "stateMutability": "nonpayable",
      "type": "function"
    },
    {
      "inputs": [
        {
          "internalType": "address",
          "name": "",
          "type": "address"
        }
      ],
      "name": "matchAddrToEmail",
      "outputs": [
        {
          "internalType": "string",
          "name": "",
          "type": "string"
        }
      ],
      "stateMutability": "view",
      "type": "function",
      "constant": true
    },
    {
      "inputs": [
        {
          "internalType": "address",
          "name": "",
          "type": "address"
        },
        {
          "internalType": "uint256",
          "name": "",
          "type": "uint256"
        }
      ],
      "name": "myDocuments",
      "outputs": [
        {
          "internalType": "uint256",
          "name": "id",
          "type": "uint256"
        },
        {
          "internalType": "string",
          "name": "fileDocName",
          "type": "string"
        },
        {
          "internalType": "string",
          "name": "regUniqueNum",
          "type": "string"
        },
        {
          "internalType": "bool",
          "name": "initialVerification",
          "type": "bool"
        }
      ],
      "stateMutability": "view",
      "type": "function",
      "constant": true
    },
    {
      "inputs": [],
      "name": "owner",
      "outputs": [
        {
          "internalType": "address",
          "name": "",
          "type": "address"
        }
      ],
      "stateMutability": "view",
      "type": "function",
      "constant": true
    },
    {
      "inputs": [
        {
          "internalType": "address",
          "name": "",
          "type": "address"
        }
      ],
      "name": "userDetails",
      "outputs": [
        {
          "internalType": "string",
          "name": "userEmailId",
          "type": "string"
        },
        {
          "internalType": "string",
          "name": "userpassword",
          "type": "string"
        },
        {
          "internalType": "string",
          "name": "userFullName",
          "type": "string"
        },
        {
          "internalType": "uint256",
          "name": "age",
          "type": "uint256"
        },
        {
          "internalType": "string",
          "name": "dateOfBirth",
          "type": "string"
        },
        {
          "internalType": "string",
          "name": "userHouseAddress",
          "type": "string"
        },
        {
          "internalType": "uint256",
          "name": "mobileNumber",
          "type": "uint256"
        },
        {
          "internalType": "uint256",
          "name": "aadharNum",
          "type": "uint256"
        }
      ],
      "stateMutability": "view",
      "type": "function",
      "constant": true
    },
    {
      "inputs": [
        {
          "internalType": "address",
          "name": "",
          "type": "address"
        }
      ],
      "name": "userLogin",
      "outputs": [
        {
          "internalType": "string",
          "name": "usern",
          "type": "string"
        },
        {
          "internalType": "string",
          "name": "userp",
          "type": "string"
        }
      ],
      "stateMutability": "view",
      "type": "function",
      "constant": true
    },
    {
      "inputs": [
        {
          "internalType": "address",
          "name": "",
          "type": "address"
        }
      ],
      "name": "userLoginStatus",
      "outputs": [
        {
          "internalType": "uint256",
          "name": "",
          "type": "uint256"
        }
      ],
      "stateMutability": "view",
      "type": "function",
      "constant": true
    },
    {
      "inputs": [
        {
          "internalType": "address",
          "name": "",
          "type": "address"
        }
      ],
      "name": "userRegisterStatus",
      "outputs": [
        {
          "internalType": "uint256",
          "name": "",
          "type": "uint256"
        }
      ],
      "stateMutability": "view",
      "type": "function",
      "constant": true
    },
    {
      "inputs": [
        {
          "internalType": "string",
          "name": "",
          "type": "string"
        }
      ],
      "name": "userRegisteredStatus",
      "outputs": [
        {
          "internalType": "uint256",
          "name": "",
          "type": "uint256"
        }
      ],
      "stateMutability": "view",
      "type": "function",
      "constant": true
    },
    {
      "inputs": [],
      "name": "usersCount",
      "outputs": [
        {
          "internalType": "uint256",
          "name": "",
          "type": "uint256"
        }
      ],
      "stateMutability": "view",
      "type": "function",
      "constant": true
    },
    {
      "inputs": [
        {
          "internalType": "string",
          "name": "_govtOrgEmailId",
          "type": "string"
        },
        {
          "internalType": "string",
          "name": "_govtOrgPassword",
          "type": "string"
        },
        {
          "internalType": "string",
          "name": "_govtOrgName",
          "type": "string"
        },
        {
          "internalType": "string",
          "name": "_govtOrgIdNum",
          "type": "string"
        },
        {
          "internalType": "string",
          "name": "_govtOrgLocation",
          "type": "string"
        },
        {
          "internalType": "string",
          "name": "_govtOrgHeadQuarters",
          "type": "string"
        },
        {
          "internalType": "uint256",
          "name": "_govtOrgContactNum",
          "type": "uint256"
        }
      ],
      "name": "registerGovtOrg",
      "outputs": [],
      "stateMutability": "nonpayable",
      "type": "function"
    },
    {
      "inputs": [
        {
          "internalType": "string",
          "name": "_addGovtorgEmailid",
          "type": "string"
        },
        {
          "internalType": "string",
          "name": "_addGovtorgPassword",
          "type": "string"
        }
      ],
      "name": "addGovtLogin",
      "outputs": [],
      "stateMutability": "nonpayable",
      "type": "function"
    },
    {
      "inputs": [
        {
          "internalType": "string",
          "name": "_govorgname",
          "type": "string"
        },
        {
          "internalType": "string",
          "name": "_govorgpassword",
          "type": "string"
        }
      ],
      "name": "signinGovtorg",
      "outputs": [],
      "stateMutability": "nonpayable",
      "type": "function"
    },
    {
      "inputs": [],
      "name": "showGovtOrgDetails",
      "outputs": [],
      "stateMutability": "nonpayable",
      "type": "function"
    },
    {
      "inputs": [],
      "name": "getGovorgName",
      "outputs": [
        {
          "internalType": "string",
          "name": "",
          "type": "string"
        }
      ],
      "stateMutability": "view",
      "type": "function",
      "constant": true
    },
    {
      "inputs": [],
      "name": "getGovorgIdNum",
      "outputs": [
        {
          "internalType": "string",
          "name": "",
          "type": "string"
        }
      ],
      "stateMutability": "view",
      "type": "function",
      "constant": true
    },
    {
      "inputs": [],
      "name": "getGovorgLocation",
      "outputs": [
        {
          "internalType": "string",
          "name": "",
          "type": "string"
        }
      ],
      "stateMutability": "view",
      "type": "function",
      "constant": true
    },
    {
      "inputs": [],
      "name": "getGovorgHq",
      "outputs": [
        {
          "internalType": "string",
          "name": "",
          "type": "string"
        }
      ],
      "stateMutability": "view",
      "type": "function",
      "constant": true
    },
    {
      "inputs": [],
      "name": "getGovorgContactnum",
      "outputs": [
        {
          "internalType": "uint256",
          "name": "",
          "type": "uint256"
        }
      ],
      "stateMutability": "view",
      "type": "function",
      "constant": true
    },
    {
      "inputs": [],
      "name": "getGovtOrgsCount",
      "outputs": [
        {
          "internalType": "uint256",
          "name": "",
          "type": "uint256"
        }
      ],
      "stateMutability": "view",
      "type": "function",
      "constant": true
    },
    {
      "inputs": [
        {
          "internalType": "address",
          "name": "user",
          "type": "address"
        }
      ],
      "name": "isUserRegistered",
      "outputs": [
        {
          "internalType": "bool",
          "name": "",
          "type": "bool"
        }
      ],
      "stateMutability": "view",
      "type": "function",
      "constant": true
    },
    {
      "inputs": [
        {
          "internalType": "address",
          "name": "requestUser",
          "type": "address"
        },
        {
          "internalType": "uint256",
          "name": "a",
          "type": "uint256"
        },
        {
          "internalType": "uint256",
          "name": "b",
          "type": "uint256"
        }
      ],
      "name": "requestDocsFromGovOrg",
      "outputs": [],
      "stateMutability": "nonpayable",
      "type": "function"
    },
    {
      "inputs": [],
      "name": "getd1",
      "outputs": [
        {
          "internalType": "uint256",
          "name": "",
          "type": "uint256"
        }
      ],
      "stateMutability": "view",
      "type": "function",
      "constant": true
    },
    {
      "inputs": [],
      "name": "getd2",
      "outputs": [
        {
          "internalType": "uint256",
          "name": "",
          "type": "uint256"
        }
      ],
      "stateMutability": "view",
      "type": "function",
      "constant": true
    }
  ],
  "bytecode": "0x608060405234801561001057600080fd5b50600080546001600160a01b03191633178155600f55611d3c806100356000396000f3fe608060405234801561001057600080fd5b50600436106102745760003560e01c8063749cf99c116101515780639b9e5121116100c3578063ceffe10311610087578063ceffe1031461060a578063d376ebc314610612578063e6c4546c1461063b578063ec5919081461066d578063ed2422741461068d578063f833483f1461069657600080fd5b80639b9e5121146105c65780639dfe146a146105cf578063b7d0ac9d146105d7578063c1e1ae2b146105fa578063ce74852c1461060257600080fd5b80638c18f2f1116101155780638c18f2f1146105675780638da5cb5b14610570578063914556db146105835780639154f0ab146105a357806397313357146105b6578063996b57b7146105be57600080fd5b8063749cf99c146104e657806378f751f21461052d5780637ef1dbea14610536578063873c50f41461053f5780638bddc5051461055f57600080fd5b806344060fd9116101ea57806359e13ffa116101ae57806359e13ffa146104795780635d18a767146104815780635fe497c3146104a257806367eacec2146104aa5780636ba13a82146104b25780636d6cdb8f146104bb57600080fd5b806344060fd9146103ee578063481f0ec41461040157806348dec2a71461040957806351fc57ff146104305780635551b53b1461043857600080fd5b806318025cfc1161023c57806318025cfc146103255780631cd4dad4146103385780631f3c99c31461034b5780632108c1df146103535780632c1acdaa146103a35780633f462b2c146103c357600080fd5b80630d188e33146102795780630e0c62471461029757806312850836146102ac57806312d43a51146102d2578063163f7522146102e9575b600080fd5b6102816106c8565b60405161028e9190611737565b60405180910390f35b6102aa6102a53660046117f4565b610756565b005b6102bf6102ba366004611874565b610852565b60405161028e979695949392919061188f565b6102db600f5481565b60405190815260200161028e565b6103156102f7366004611874565b6001600160a01b031660009081526006602052604090205460011490565b604051901515815260200161028e565b610281610333366004611874565b610bbc565b6102aa6103463660046117f4565b610bd5565b6102aa610c2c565b6102aa610361366004611919565b60408051808201825292835260208084019283526001600160a01b039094166000908152600c8552818120338252909452909220905181559051600190910155565b6102db6103b1366004611874565b60066020526000908152604090205481565b6102db6103d136600461194c565b805160208183018101805160048252928201919093012091525481565b6102aa6103fc366004611989565b610c7f565b610281610e83565b61041c610417366004611874565b610e90565b60405161028e989796959493929190611a89565b6012546102db565b610461610446366004611b0b565b6010602052600090815260409020546001600160a01b031681565b6040516001600160a01b03909116815260200161028e565b610281611178565b61049461048f366004611874565b61120a565b60405161028e929190611b24565b610281611336565b601b546102db565b6102db60115481565b6102db6104c936600461194c565b805160208183018101805160088252928201919093012091525481565b6105186104f4366004611b52565b600d6020908152600092835260408084209091529082529020805460019091015482565b6040805192835260208301919091520161028e565b6102db60125481565b6102db601b5481565b6102db61054d366004611874565b60056020526000908152604090205481565b610281611343565b6102db601a5481565b600054610461906001600160a01b031681565b6102db610591366004611874565b60096020526000908152604090205481565b6104946105b1366004611874565b611350565b61028161136b565b61028161137a565b6102db60185481565b6102aa611389565b6105ea6105e5366004611b85565b611471565b60405161028e9493929190611baf565b6018546102db565b601a546102db565b6102816115b8565b610461610620366004611b0b565b6000908152601060205260409020546001600160a01b031690565b610518610649366004611b52565b600c6020908152600092835260408084209091529082529020805460019091015482565b6102db61067b366004611874565b600a6020526000908152604090205481565b6102db60195481565b6105186106a4366004611b52565b600e6020908152600092835260408084209091529082529020805460019091015482565b601480546106d590611bee565b80601f016020809104026020016040519081016040528092919081815260200182805461070190611bee565b801561074e5780601f106107235761010080835404028352916020019161074e565b820191906000526020600020905b81548152906001019060200180831161073157829003601f168201915b505050505081565b816040516020016107679190611c28565b60408051601f1981840301815282825280516020918201203360009081526003835292909220919261079a929101611c44565b60405160208183030381529060405280519060200120146107ba57600080fd5b806040516020016107cb9190611c28565b60408051601f19818403018152828252805160209182012033600090815260078352929092209192610801926001019101611c44565b604051602081830303815290604052805190602001201461082157600080fd5b336000908152600a60205260409020541561083b57600080fd5b5050336000908152600a6020526040902060019055565b60136020526000908152604090208054819061086d90611bee565b80601f016020809104026020016040519081016040528092919081815260200182805461089990611bee565b80156108e65780601f106108bb576101008083540402835291602001916108e6565b820191906000526020600020905b8154815290600101906020018083116108c957829003601f168201915b5050505050908060010180546108fb90611bee565b80601f016020809104026020016040519081016040528092919081815260200182805461092790611bee565b80156109745780601f1061094957610100808354040283529160200191610974565b820191906000526020600020905b81548152906001019060200180831161095757829003601f168201915b50505050509080600201805461098990611bee565b80601f01602080910402602001604051908101604052809291908181526020018280546109b590611bee565b8015610a025780601f106109d757610100808354040283529160200191610a02565b820191906000526020600020905b8154815290600101906020018083116109e557829003601f168201915b505050505090806003018054610a1790611bee565b80601f0160208091040260200160405190810160405280929190818152602001828054610a4390611bee565b8015610a905780601f10610a6557610100808354040283529160200191610a90565b820191906000526020600020905b815481529060010190602001808311610a7357829003601f168201915b505050505090806004018054610aa590611bee565b80601f0160208091040260200160405190810160405280929190818152602001828054610ad190611bee565b8015610b1e5780601f10610af357610100808354040283529160200191610b1e565b820191906000526020600020905b815481529060010190602001808311610b0157829003601f168201915b505050505090806005018054610b3390611bee565b80601f0160208091040260200160405190810160405280929190818152602001828054610b5f90611bee565b8015610bac5780601f10610b8157610100808354040283529160200191610bac565b820191906000526020600020905b815481529060010190602001808311610b8f57829003601f168201915b5050505050908060060154905087565b600360205260009081526040902080546106d590611bee565b604080518082018252838152602080820184905233600090815260078252929092208151805192939192610c0c92849201906115c7565b506020828101518051610c2592600185019201906115c7565b5050505050565b33600090815260056020526040902054600103610c555733600090815260056020526040812055565b336000908152600a6020526040902054600103610c7d57336000908152600a60205260408120555b565b600887604051610c8f9190611c28565b908152602001604051809103902054600014610caa57600080fd5b3360009081526009602052604090205415610cc457600080fd5b3360009081526006602052604090205415610cde57600080fd5b6040805160e0810182528881526020808201899052818301889052606082018790526080820186905260a0820185905260c0820184905233600090815260138252929092208151805192939192610d3892849201906115c7565b506020828101518051610d5192600185019201906115c7565b5060408201518051610d6d9160028401916020909101906115c7565b5060608201518051610d899160038401916020909101906115c7565b5060808201518051610da59160048401916020909101906115c7565b5060a08201518051610dc19160058401916020909101906115c7565b5060c08201518160060155905050610dd98787610bd5565b3360009081526003602090815260409091208851610df9928a01906115c7565b506001600888604051610e0c9190611c28565b908152604080516020928190038301902092909255336000908152600990915290812060019055600f805491610e4183611cdf565b9091555050600f54600090815260106020526040812080546001600160a01b031916331790556012805491610e7583611cdf565b919050555050505050505050565b601580546106d590611bee565b600160205260009081526040902080548190610eab90611bee565b80601f0160208091040260200160405190810160405280929190818152602001828054610ed790611bee565b8015610f245780601f10610ef957610100808354040283529160200191610f24565b820191906000526020600020905b815481529060010190602001808311610f0757829003601f168201915b505050505090806001018054610f3990611bee565b80601f0160208091040260200160405190810160405280929190818152602001828054610f6590611bee565b8015610fb25780601f10610f8757610100808354040283529160200191610fb2565b820191906000526020600020905b815481529060010190602001808311610f9557829003601f168201915b505050505090806002018054610fc790611bee565b80601f0160208091040260200160405190810160405280929190818152602001828054610ff390611bee565b80156110405780601f1061101557610100808354040283529160200191611040565b820191906000526020600020905b81548152906001019060200180831161102357829003601f168201915b50505050509080600301549080600401805461105b90611bee565b80601f016020809104026020016040519081016040528092919081815260200182805461108790611bee565b80156110d45780601f106110a9576101008083540402835291602001916110d4565b820191906000526020600020905b8154815290600101906020018083116110b757829003601f168201915b5050505050908060050180546110e990611bee565b80601f016020809104026020016040519081016040528092919081815260200182805461111590611bee565b80156111625780601f1061113757610100808354040283529160200191611162565b820191906000526020600020905b81548152906001019060200180831161114557829003601f168201915b5050505050908060060154908060070154905088565b60606017805461118790611bee565b80601f01602080910402602001604051908101604052809291908181526020018280546111b390611bee565b80156112005780601f106111d557610100808354040283529160200191611200565b820191906000526020600020905b8154815290600101906020018083116111e357829003601f168201915b5050505050905090565b60076020526000908152604090208054819061122590611bee565b80601f016020809104026020016040519081016040528092919081815260200182805461125190611bee565b801561129e5780601f106112735761010080835404028352916020019161129e565b820191906000526020600020905b81548152906001019060200180831161128157829003601f168201915b5050505050908060010180546112b390611bee565b80601f01602080910402602001604051908101604052809291908181526020018280546112df90611bee565b801561132c5780601f106113015761010080835404028352916020019161132c565b820191906000526020600020905b81548152906001019060200180831161130f57829003601f168201915b5050505050905082565b601780546106d590611bee565b601680546106d590611bee565b60026020526000908152604090208054819061122590611bee565b60606015805461118790611bee565b60606014805461118790611bee565b336000908152600a60205260409020546001146113a557600080fd5b3360009081526013602052604090206002018054601491906113c690611bee565b6113d192919061164b565b503360009081526013602052604090206003018054601591906113f390611bee565b6113fe92919061164b565b5033600090815260136020526040902060040180546016919061142090611bee565b61142b92919061164b565b5033600090815260136020526040902060050180546017919061144d90611bee565b61145892919061164b565b5033600090815260136020526040902060060154601855565b600b6020908152600092835260408084209091529082529020805460018201805491929161149e90611bee565b80601f01602080910402602001604051908101604052809291908181526020018280546114ca90611bee565b80156115175780601f106114ec57610100808354040283529160200191611517565b820191906000526020600020905b8154815290600101906020018083116114fa57829003601f168201915b50505050509080600201805461152c90611bee565b80601f016020809104026020016040519081016040528092919081815260200182805461155890611bee565b80156115a55780601f1061157a576101008083540402835291602001916115a5565b820191906000526020600020905b81548152906001019060200180831161158857829003601f168201915b5050506003909301549192505060ff1684565b60606016805461118790611bee565b8280546115d390611bee565b90600052602060002090601f0160209004810192826115f5576000855561163b565b82601f1061160e57805160ff191683800117855561163b565b8280016001018555821561163b579182015b8281111561163b578251825591602001919060010190611620565b506116479291506116c6565b5090565b82805461165790611bee565b90600052602060002090601f016020900481019282611679576000855561163b565b82601f1061168a578054855561163b565b8280016001018555821561163b57600052602060002091601f016020900482015b8281111561163b5782548255916001019190600101906116ab565b5b8082111561164757600081556001016116c7565b60005b838110156116f65781810151838201526020016116de565b83811115611705576000848401525b50505050565b600081518084526117238160208601602086016116db565b601f01601f19169290920160200192915050565b60208152600061174a602083018461170b565b9392505050565b634e487b7160e01b600052604160045260246000fd5b600082601f83011261177857600080fd5b813567ffffffffffffffff8082111561179357611793611751565b604051601f8301601f19908116603f011681019082821181831017156117bb576117bb611751565b816040528381528660208588010111156117d457600080fd5b836020870160208301376000602085830101528094505050505092915050565b6000806040838503121561180757600080fd5b823567ffffffffffffffff8082111561181f57600080fd5b61182b86838701611767565b9350602085013591508082111561184157600080fd5b5061184e85828601611767565b9150509250929050565b80356001600160a01b038116811461186f57600080fd5b919050565b60006020828403121561188657600080fd5b61174a82611858565b60e0815260006118a260e083018a61170b565b82810360208401526118b4818a61170b565b905082810360408401526118c8818961170b565b905082810360608401526118dc818861170b565b905082810360808401526118f0818761170b565b905082810360a0840152611904818661170b565b9150508260c083015298975050505050505050565b60008060006060848603121561192e57600080fd5b61193784611858565b95602085013595506040909401359392505050565b60006020828403121561195e57600080fd5b813567ffffffffffffffff81111561197557600080fd5b61198184828501611767565b949350505050565b600080600080600080600060e0888a0312156119a457600080fd5b873567ffffffffffffffff808211156119bc57600080fd5b6119c88b838c01611767565b985060208a01359150808211156119de57600080fd5b6119ea8b838c01611767565b975060408a0135915080821115611a0057600080fd5b611a0c8b838c01611767565b965060608a0135915080821115611a2257600080fd5b611a2e8b838c01611767565b955060808a0135915080821115611a4457600080fd5b611a508b838c01611767565b945060a08a0135915080821115611a6657600080fd5b50611a738a828b01611767565b92505060c0880135905092959891949750929550565b6000610100808352611a9d8184018c61170b565b90508281036020840152611ab1818b61170b565b90508281036040840152611ac5818a61170b565b90508760608401528281036080840152611adf818861170b565b905082810360a0840152611af3818761170b565b60c0840195909552505060e001529695505050505050565b600060208284031215611b1d57600080fd5b5035919050565b604081526000611b37604083018561170b565b8281036020840152611b49818561170b565b95945050505050565b60008060408385031215611b6557600080fd5b611b6e83611858565b9150611b7c60208401611858565b90509250929050565b60008060408385031215611b9857600080fd5b611ba183611858565b946020939093013593505050565b848152608060208201526000611bc8608083018661170b565b8281036040840152611bda818661170b565b915050821515606083015295945050505050565b600181811c90821680611c0257607f821691505b602082108103611c2257634e487b7160e01b600052602260045260246000fd5b50919050565b60008251611c3a8184602087016116db565b9190910192915050565b600080835481600182811c915080831680611c6057607f831692505b60208084108203611c7f57634e487b7160e01b86526022600452602486fd5b818015611c935760018114611ca457611cd1565b60ff19861689528489019650611cd1565b60008a81526020902060005b86811015611cc95781548b820152908501908301611cb0565b505084890196505b509498975050505050505050565b600060018201611cff57634e487b7160e01b600052601160045260246000fd5b506001019056fea2646970667358221220b99f632aeb59fc46c88da9a831b3dcaf5cf834342cb3e3814dbcf6896d56a51c64736f6c634300080d0033",
  "immutableReferences": {},
  "source": "// SPDX-License-Identifier: MIT\r\npragma solidity^0.8.13;\r\nimport \"./Base.sol\";\r\n\r\ncontract Govtorg is Base {\r\n    // Struct to hold govt org details\r\n    struct GovtOrg {\r\n        string govtOrgEmailId;\r\n        string govtOrgPassword;\r\n        string govtOrgName;\r\n        string govtOrgIdNum;\r\n        string govtOrgLocation;\r\n        string govtOrgHeadQuarters;\r\n        uint govtOrgContactNum;\r\n    }\r\n\r\n    // Mapping to store GovtOrg details by address\r\n    mapping(address => GovtOrg) public govtorgDetails;\r\n\r\n    // Other state variables\r\n    string public govorg_Name;\r\n    string public govorg_IdNum;\r\n    string public govorg_Location;\r\n    string public govorg_HQ;\r\n    uint public govorg_ContactNum;\r\n    uint public govorg_UserRequestedCount;\r\n    \r\n    uint public d1;\r\n    uint public d2;\r\n\r\n    // Modifier for only signed-in GovtOrg\r\n    modifier onlySignedInGovtOrg {\r\n        require(govtorgLoginStatus[msg.sender] == 1);\r\n        _;\r\n    }\r\n\r\n    // Function to register a government organization\r\n    function registerGovtOrg(\r\n        string memory _govtOrgEmailId, \r\n        string memory _govtOrgPassword,\r\n        string memory _govtOrgName,\r\n        string memory _govtOrgIdNum,\r\n        string memory _govtOrgLocation,\r\n        string memory _govtOrgHeadQuarters,\r\n        uint _govtOrgContactNum\r\n    ) public {\r\n        require(govtorgRegisteredStatus[_govtOrgEmailId] == 0);\r\n        require(govtorgRegisterStatus[msg.sender] == 0);\r\n        require(userRegisterStatus[msg.sender] == 0);\r\n        \r\n        // Store govt org details in the mapping\r\n        govtorgDetails[msg.sender] = GovtOrg(\r\n            _govtOrgEmailId,\r\n            _govtOrgPassword,\r\n            _govtOrgName,\r\n            _govtOrgIdNum,\r\n            _govtOrgLocation,\r\n            _govtOrgHeadQuarters,\r\n            _govtOrgContactNum\r\n        );\r\n\r\n        // Additional registration logic\r\n        addGovtLogin(_govtOrgEmailId, _govtOrgPassword);\r\n        matchAddrToEmail[msg.sender] = _govtOrgEmailId;\r\n        govtorgRegisteredStatus[_govtOrgEmailId] = 1;\r\n        govtorgRegisterStatus[msg.sender] = 1;\r\n        gov++;\r\n        govtOrgsList[gov] = msg.sender;\r\n        govtorgsCount++;\r\n    }\r\n    // Function to add govt org login credentials\r\n    function addGovtLogin(string memory _addGovtorgEmailid, string memory _addGovtorgPassword) public {\r\n        govtorgLogin[msg.sender] = GovtOrgLoginIDs(_addGovtorgEmailid, _addGovtorgPassword);\r\n    }\r\n\r\n    // Function to sign in a govt org\r\n    function signinGovtorg(string memory _govorgname, string memory _govorgpassword) public {\r\n        require(keccak256(abi.encodePacked(matchAddrToEmail[msg.sender])) == keccak256(abi.encodePacked(_govorgname)));\r\n        require(keccak256(abi.encodePacked(govtorgLogin[msg.sender].userp)) == keccak256(abi.encodePacked(_govorgpassword)));\r\n        require(govtorgLoginStatus[msg.sender] == 0);\r\n        govtorgLoginStatus[msg.sender] = 1;\r\n    }\r\n\r\n    // Function to display govt org details\r\n    function showGovtOrgDetails() public {\r\n        require(govtorgLoginStatus[msg.sender] == 1);\r\n        govorg_Name = govtorgDetails[msg.sender].govtOrgName;\r\n        govorg_IdNum = govtorgDetails[msg.sender].govtOrgIdNum;\r\n        govorg_Location = govtorgDetails[msg.sender].govtOrgLocation;\r\n        govorg_HQ = govtorgDetails[msg.sender].govtOrgHeadQuarters;\r\n        govorg_ContactNum = govtorgDetails[msg.sender].govtOrgContactNum;\r\n    }\r\n\r\n    // Getter functions for govt org details\r\n    function getGovorgName() public view returns(string memory) {\r\n        return govorg_Name;\r\n    }\r\n\r\n    function getGovorgIdNum() public view returns(string memory) {\r\n        return govorg_IdNum;\r\n    }\r\n\r\n    function getGovorgLocation() public view returns(string memory) {\r\n        return govorg_Location;\r\n    }\r\n\r\n    function getGovorgHq() public view returns(string memory) {\r\n        return govorg_HQ;\r\n    }\r\n\r\n    function getGovorgContactnum() public view returns(uint) {\r\n        return govorg_ContactNum;\r\n    }\r\n\r\n    // Function to get the count of govt orgs\r\n    function getGovtOrgsCount() public view returns(uint) {\r\n        return govtorgsCount;\r\n    }\r\n\r\n    function isUserRegistered(address user) public view returns (bool) {\r\n        return userRegisterStatus[user] == 1;\r\n    }\r\n\r\n    // Function to request documents from a govt org\r\n    function requestDocsFromGovOrg(address requestUser, uint a, uint b) public {\r\n        // require(userRegisterStatus[requestUser] == 1,\"User is not registered\");\r\n        docsRequestedDB[requestUser][msg.sender] = DocsRequestedDatabase(a, b);\r\n    }\r\n\r\n    // Getter functions for d1 and d2\r\n    function getd1() public view returns(uint) {\r\n        return d1;\r\n    }\r\n\r\n    function getd2() public view returns(uint) {\r\n        return d2;\r\n    }\r\n}\r\n",
  "sourcePath": "/Users/rajesmanna/Downloads/Decentralized-Identity-management-master (3) 2/Decentralized-Identity-management-master/contracts/Govtorg.sol",
  "compiler": {
    "name": "solc",
    "version": "0.8.13+commit.abaa5c0e.Emscripten.clang"
  },
  "schemaVersion": "3.4.16",
  "updatedAt": "2025-04-11T15:32:37.378Z",
  "networkType": "ethereum",
  "devdoc": {
    "kind": "dev",
    "methods": {},
    "version": 1
  },
  "userdoc": {
    "kind": "user",
    "methods": {},
    "version": 1
  }
}