{
  "contractName": "User",
  "abi": [
    {
      "inputs": [
        {
          "internalType": "address",
          "name": "",
          "type": "address"
        },
        {
          "internalType": "address",
          "name": "",
          "type": "address"
        }
      ],
      "name": "_docs_permitted",
      "outputs": [
        {
          "internalType": "uint256",
          "name": "aadhaarproof",
          "type": "uint256"
        },
        {
          "internalType": "uint256",
          "name": "birthproof",
          "type": "uint256"
        }
      ],
      "stateMutability": "view",
      "type": "function",
      "constant": true
    },
    {
      "inputs": [
        {
          "internalType": "address",
          "name": "",
          "type": "address"
        },
        {
          "internalType": "address",
          "name": "",
          "type": "address"
        }
      ],
      "name": "_docs_permitted_tb",
      "outputs": [
        {
          "internalType": "uint256",
          "name": "aadhaarproof",
          "type": "uint256"
        },
        {
          "internalType": "uint256",
          "name": "birthproof",
          "type": "uint256"
        }
      ],
      "stateMutability": "view",
      "type": "function",
      "constant": true
    },
    {
      "inputs": [
        {
          "internalType": "string",
          "name": "_addGovtorgEmailid",
          "type": "string"
        },
        {
          "internalType": "string",
          "name": "_addGovtorgPassword",
          "type": "string"
        }
      ],
      "name": "addGovtLogin",
      "outputs": [],
      "stateMutability": "nonpayable",
      "type": "function"
    },
    {
      "inputs": [],
      "name": "d1",
      "outputs": [
        {
          "internalType": "uint256",
          "name": "",
          "type": "uint256"
        }
      ],
      "stateMutability": "view",
      "type": "function",
      "constant": true
    },
    {
      "inputs": [],
      "name": "d2",
      "outputs": [
        {
          "internalType": "uint256",
          "name": "",
          "type": "uint256"
        }
      ],
      "stateMutability": "view",
      "type": "function",
      "constant": true
    },
    {
      "inputs": [],
      "name": "doc1",
      "outputs": [
        {
          "internalType": "uint256",
          "name": "",
          "type": "uint256"
        }
      ],
      "stateMutability": "view",
      "type": "function",
      "constant": true
    },
    {
      "inputs": [],
      "name": "doc2",
      "outputs": [
        {
          "internalType": "uint256",
          "name": "",
          "type": "uint256"
        }
      ],
      "stateMutability": "view",
      "type": "function",
      "constant": true
    },
    {
      "inputs": [
        {
          "internalType": "address",
          "name": "",
          "type": "address"
        },
        {
          "internalType": "address",
          "name": "",
          "type": "address"
        }
      ],
      "name": "docsRequestedDB",
      "outputs": [
        {
          "internalType": "uint256",
          "name": "aadhaarproof",
          "type": "uint256"
        },
        {
          "internalType": "uint256",
          "name": "birthproof",
          "type": "uint256"
        }
      ],
      "stateMutability": "view",
      "type": "function",
      "constant": true
    },
    {
      "inputs": [],
      "name": "getGovorgContactnum",
      "outputs": [
        {
          "internalType": "uint256",
          "name": "",
          "type": "uint256"
        }
      ],
      "stateMutability": "view",
      "type": "function",
      "constant": true
    },
    {
      "inputs": [],
      "name": "getGovorgHq",
      "outputs": [
        {
          "internalType": "string",
          "name": "",
          "type": "string"
        }
      ],
      "stateMutability": "view",
      "type": "function",
      "constant": true
    },
    {
      "inputs": [],
      "name": "getGovorgIdNum",
      "outputs": [
        {
          "internalType": "string",
          "name": "",
          "type": "string"
        }
      ],
      "stateMutability": "view",
      "type": "function",
      "constant": true
    },
    {
      "inputs": [],
      "name": "getGovorgLocation",
      "outputs": [
        {
          "internalType": "string",
          "name": "",
          "type": "string"
        }
      ],
      "stateMutability": "view",
      "type": "function",
      "constant": true
    },
    {
      "inputs": [],
      "name": "getGovorgName",
      "outputs": [
        {
          "internalType": "string",
          "name": "",
          "type": "string"
        }
      ],
      "stateMutability": "view",
      "type": "function",
      "constant": true
    },
    {
      "inputs": [],
      "name": "getGovtOrgsCount",
      "outputs": [
        {
          "internalType": "uint256",
          "name": "",
          "type": "uint256"
        }
      ],
      "stateMutability": "view",
      "type": "function",
      "constant": true
    },
    {
      "inputs": [
        {
          "internalType": "uint256",
          "name": "num",
          "type": "uint256"
        }
      ],
      "name": "getOrgAt",
      "outputs": [
        {
          "internalType": "address",
          "name": "",
          "type": "address"
        }
      ],
      "stateMutability": "view",
      "type": "function",
      "constant": true
    },
    {
      "inputs": [],
      "name": "getd1",
      "outputs": [
        {
          "internalType": "uint256",
          "name": "",
          "type": "uint256"
        }
      ],
      "stateMutability": "view",
      "type": "function",
      "constant": true
    },
    {
      "inputs": [],
      "name": "getd2",
      "outputs": [
        {
          "internalType": "uint256",
          "name": "",
          "type": "uint256"
        }
      ],
      "stateMutability": "view",
      "type": "function",
      "constant": true
    },
    {
      "inputs": [],
      "name": "gov",
      "outputs": [
        {
          "internalType": "uint256",
          "name": "",
          "type": "uint256"
        }
      ],
      "stateMutability": "view",
      "type": "function",
      "constant": true
    },
    {
      "inputs": [],
      "name": "govorg_ContactNum",
      "outputs": [
        {
          "internalType": "uint256",
          "name": "",
          "type": "uint256"
        }
      ],
      "stateMutability": "view",
      "type": "function",
      "constant": true
    },
    {
      "inputs": [],
      "name": "govorg_HQ",
      "outputs": [
        {
          "internalType": "string",
          "name": "",
          "type": "string"
        }
      ],
      "stateMutability": "view",
      "type": "function",
      "constant": true
    },
    {
      "inputs": [],
      "name": "govorg_IdNum",
      "outputs": [
        {
          "internalType": "string",
          "name": "",
          "type": "string"
        }
      ],
      "stateMutability": "view",
      "type": "function",
      "constant": true
    },
    {
      "inputs": [],
      "name": "govorg_Location",
      "outputs": [
        {
          "internalType": "string",
          "name": "",
          "type": "string"
        }
      ],
      "stateMutability": "view",
      "type": "function",
      "constant": true
    },
    {
      "inputs": [],
      "name": "govorg_Name",
      "outputs": [
        {
          "internalType": "string",
          "name": "",
          "type": "string"
        }
      ],
      "stateMutability": "view",
      "type": "function",
      "constant": true
    },
    {
      "inputs": [],
      "name": "govorg_UserRequestedCount",
      "outputs": [
        {
          "internalType": "uint256",
          "name": "",
          "type": "uint256"
        }
      ],
      "stateMutability": "view",
      "type": "function",
      "constant": true
    },
    {
      "inputs": [
        {
          "internalType": "uint256",
          "name": "",
          "type": "uint256"
        }
      ],
      "name": "govtOrgsList",
      "outputs": [
        {
          "internalType": "address",
          "name": "",
          "type": "address"
        }
      ],
      "stateMutability": "view",
      "type": "function",
      "constant": true
    },
    {
      "inputs": [
        {
          "internalType": "address",
          "name": "",
          "type": "address"
        }
      ],
      "name": "govtorgDetails",
      "outputs": [
        {
          "internalType": "string",
          "name": "govtOrgEmailId",
          "type": "string"
        },
        {
          "internalType": "string",
          "name": "govtOrgPassword",
          "type": "string"
        },
        {
          "internalType": "string",
          "name": "govtOrgName",
          "type": "string"
        },
        {
          "internalType": "string",
          "name": "govtOrgIdNum",
          "type": "string"
        },
        {
          "internalType": "string",
          "name": "govtOrgLocation",
          "type": "string"
        },
        {
          "internalType": "string",
          "name": "govtOrgHeadQuarters",
          "type": "string"
        },
        {
          "internalType": "uint256",
          "name": "govtOrgContactNum",
          "type": "uint256"
        }
      ],
      "stateMutability": "view",
      "type": "function",
      "constant": true
    },
    {
      "inputs": [
        {
          "internalType": "address",
          "name": "",
          "type": "address"
        }
      ],
      "name": "govtorgLogin",
      "outputs": [
        {
          "internalType": "string",
          "name": "usern",
          "type": "string"
        },
        {
          "internalType": "string",
          "name": "userp",
          "type": "string"
        }
      ],
      "stateMutability": "view",
      "type": "function",
      "constant": true
    },
    {
      "inputs": [
        {
          "internalType": "address",
          "name": "",
          "type": "address"
        }
      ],
      "name": "govtorgLoginStatus",
      "outputs": [
        {
          "internalType": "uint256",
          "name": "",
          "type": "uint256"
        }
      ],
      "stateMutability": "view",
      "type": "function",
      "constant": true
    },
    {
      "inputs": [
        {
          "internalType": "address",
          "name": "",
          "type": "address"
        }
      ],
      "name": "govtorgRegisterStatus",
      "outputs": [
        {
          "internalType": "uint256",
          "name": "",
          "type": "uint256"
        }
      ],
      "stateMutability": "view",
      "type": "function",
      "constant": true
    },
    {
      "inputs": [
        {
          "internalType": "string",
          "name": "",
          "type": "string"
        }
      ],
      "name": "govtorgRegisteredStatus",
      "outputs": [
        {
          "internalType": "uint256",
          "name": "",
          "type": "uint256"
        }
      ],
      "stateMutability": "view",
      "type": "function",
      "constant": true
    },
    {
      "inputs": [],
      "name": "govtorgsCount",
      "outputs": [
        {
          "internalType": "uint256",
          "name": "",
          "type": "uint256"
        }
      ],
      "stateMutability": "view",
      "type": "function",
      "constant": true
    },
    {
      "inputs": [
        {
          "internalType": "address",
          "name": "user",
          "type": "address"
        }
      ],
      "name": "isUserRegistered",
      "outputs": [
        {
          "internalType": "bool",
          "name": "",
          "type": "bool"
        }
      ],
      "stateMutability": "view",
      "type": "function",
      "constant": true
    },
    {
      "inputs": [],
      "name": "logout",
      "outputs": [],
      "stateMutability": "nonpayable",
      "type": "function"
    },
    {
      "inputs": [
        {
          "internalType": "address",
          "name": "",
          "type": "address"
        }
      ],
      "name": "matchAddrToEmail",
      "outputs": [
        {
          "internalType": "string",
          "name": "",
          "type": "string"
        }
      ],
      "stateMutability": "view",
      "type": "function",
      "constant": true
    },
    {
      "inputs": [
        {
          "internalType": "address",
          "name": "",
          "type": "address"
        },
        {
          "internalType": "uint256",
          "name": "",
          "type": "uint256"
        }
      ],
      "name": "myDocuments",
      "outputs": [
        {
          "internalType": "uint256",
          "name": "id",
          "type": "uint256"
        },
        {
          "internalType": "string",
          "name": "fileDocName",
          "type": "string"
        },
        {
          "internalType": "string",
          "name": "regUniqueNum",
          "type": "string"
        },
        {
          "internalType": "bool",
          "name": "initialVerification",
          "type": "bool"
        }
      ],
      "stateMutability": "view",
      "type": "function",
      "constant": true
    },
    {
      "inputs": [],
      "name": "owner",
      "outputs": [
        {
          "internalType": "address",
          "name": "",
          "type": "address"
        }
      ],
      "stateMutability": "view",
      "type": "function",
      "constant": true
    },
    {
      "inputs": [
        {
          "internalType": "string",
          "name": "_govtOrgEmailId",
          "type": "string"
        },
        {
          "internalType": "string",
          "name": "_govtOrgPassword",
          "type": "string"
        },
        {
          "internalType": "string",
          "name": "_govtOrgName",
          "type": "string"
        },
        {
          "internalType": "string",
          "name": "_govtOrgIdNum",
          "type": "string"
        },
        {
          "internalType": "string",
          "name": "_govtOrgLocation",
          "type": "string"
        },
        {
          "internalType": "string",
          "name": "_govtOrgHeadQuarters",
          "type": "string"
        },
        {
          "internalType": "uint256",
          "name": "_govtOrgContactNum",
          "type": "uint256"
        }
      ],
      "name": "registerGovtOrg",
      "outputs": [],
      "stateMutability": "nonpayable",
      "type": "function"
    },
    {
      "inputs": [
        {
          "internalType": "address",
          "name": "requestUser",
          "type": "address"
        },
        {
          "internalType": "uint256",
          "name": "a",
          "type": "uint256"
        },
        {
          "internalType": "uint256",
          "name": "b",
          "type": "uint256"
        }
      ],
      "name": "requestDocsFromGovOrg",
      "outputs": [],
      "stateMutability": "nonpayable",
      "type": "function"
    },
    {
      "inputs": [],
      "name": "showGovtOrgDetails",
      "outputs": [],
      "stateMutability": "nonpayable",
      "type": "function"
    },
    {
      "inputs": [
        {
          "internalType": "string",
          "name": "_govorgname",
          "type": "string"
        },
        {
          "internalType": "string",
          "name": "_govorgpassword",
          "type": "string"
        }
      ],
      "name": "signinGovtorg",
      "outputs": [],
      "stateMutability": "nonpayable",
      "type": "function"
    },
    {
      "inputs": [],
      "name": "testStr",
      "outputs": [
        {
          "internalType": "string",
          "name": "",
          "type": "string"
        }
      ],
      "stateMutability": "view",
      "type": "function",
      "constant": true
    },
    {
      "inputs": [
        {
          "internalType": "address",
          "name": "",
          "type": "address"
        }
      ],
      "name": "userDetails",
      "outputs": [
        {
          "internalType": "string",
          "name": "userEmailId",
          "type": "string"
        },
        {
          "internalType": "string",
          "name": "userpassword",
          "type": "string"
        },
        {
          "internalType": "string",
          "name": "userFullName",
          "type": "string"
        },
        {
          "internalType": "uint256",
          "name": "age",
          "type": "uint256"
        },
        {
          "internalType": "string",
          "name": "dateOfBirth",
          "type": "string"
        },
        {
          "internalType": "string",
          "name": "userHouseAddress",
          "type": "string"
        },
        {
          "internalType": "uint256",
          "name": "mobileNumber",
          "type": "uint256"
        },
        {
          "internalType": "uint256",
          "name": "aadharNum",
          "type": "uint256"
        }
      ],
      "stateMutability": "view",
      "type": "function",
      "constant": true
    },
    {
      "inputs": [
        {
          "internalType": "address",
          "name": "",
          "type": "address"
        }
      ],
      "name": "userLogin",
      "outputs": [
        {
          "internalType": "string",
          "name": "usern",
          "type": "string"
        },
        {
          "internalType": "string",
          "name": "userp",
          "type": "string"
        }
      ],
      "stateMutability": "view",
      "type": "function",
      "constant": true
    },
    {
      "inputs": [
        {
          "internalType": "address",
          "name": "",
          "type": "address"
        }
      ],
      "name": "userLoginStatus",
      "outputs": [
        {
          "internalType": "uint256",
          "name": "",
          "type": "uint256"
        }
      ],
      "stateMutability": "view",
      "type": "function",
      "constant": true
    },
    {
      "inputs": [
        {
          "internalType": "address",
          "name": "",
          "type": "address"
        }
      ],
      "name": "userRegisterStatus",
      "outputs": [
        {
          "internalType": "uint256",
          "name": "",
          "type": "uint256"
        }
      ],
      "stateMutability": "view",
      "type": "function",
      "constant": true
    },
    {
      "inputs": [
        {
          "internalType": "string",
          "name": "",
          "type": "string"
        }
      ],
      "name": "userRegisteredStatus",
      "outputs": [
        {
          "internalType": "uint256",
          "name": "",
          "type": "uint256"
        }
      ],
      "stateMutability": "view",
      "type": "function",
      "constant": true
    },
    {
      "inputs": [],
      "name": "user_AadhaarNum",
      "outputs": [
        {
          "internalType": "uint256",
          "name": "",
          "type": "uint256"
        }
      ],
      "stateMutability": "view",
      "type": "function",
      "constant": true
    },
    {
      "inputs": [],
      "name": "user_Age",
      "outputs": [
        {
          "internalType": "uint256",
          "name": "",
          "type": "uint256"
        }
      ],
      "stateMutability": "view",
      "type": "function",
      "constant": true
    },
    {
      "inputs": [],
      "name": "user_Dob",
      "outputs": [
        {
          "internalType": "string",
          "name": "",
          "type": "string"
        }
      ],
      "stateMutability": "view",
      "type": "function",
      "constant": true
    },
    {
      "inputs": [],
      "name": "user_FullName",
      "outputs": [
        {
          "internalType": "string",
          "name": "",
          "type": "string"
        }
      ],
      "stateMutability": "view",
      "type": "function",
      "constant": true
    },
    {
      "inputs": [],
      "name": "user_HouseAddr",
      "outputs": [
        {
          "internalType": "string",
          "name": "",
          "type": "string"
        }
      ],
      "stateMutability": "view",
      "type": "function",
      "constant": true
    },
    {
      "inputs": [],
      "name": "user_MobileNum",
      "outputs": [
        {
          "internalType": "uint256",
          "name": "",
          "type": "uint256"
        }
      ],
      "stateMutability": "view",
      "type": "function",
      "constant": true
    },
    {
      "inputs": [],
      "name": "usersCount",
      "outputs": [
        {
          "internalType": "uint256",
          "name": "",
          "type": "uint256"
        }
      ],
      "stateMutability": "view",
      "type": "function",
      "constant": true
    },
    {
      "inputs": [
        {
          "internalType": "string",
          "name": "_userEmailId",
          "type": "string"
        },
        {
          "internalType": "string",
          "name": "_userpassword",
          "type": "string"
        },
        {
          "internalType": "string",
          "name": "_userFullName",
          "type": "string"
        },
        {
          "internalType": "uint256",
          "name": "_age",
          "type": "uint256"
        },
        {
          "internalType": "string",
          "name": "_dateOfBirth",
          "type": "string"
        },
        {
          "internalType": "string",
          "name": "_userHouseAddr",
          "type": "string"
        },
        {
          "internalType": "uint256",
          "name": "_mobileNumber",
          "type": "uint256"
        },
        {
          "internalType": "uint256",
          "name": "_aadharNum",
          "type": "uint256"
        }
      ],
      "name": "registerUser",
      "outputs": [],
      "stateMutability": "nonpayable",
      "type": "function"
    },
    {
      "inputs": [
        {
          "internalType": "string",
          "name": "_addUserName",
          "type": "string"
        },
        {
          "internalType": "string",
          "name": "_addUserPassword",
          "type": "string"
        }
      ],
      "name": "addUserLogin",
      "outputs": [],
      "stateMutability": "nonpayable",
      "type": "function"
    },
    {
      "inputs": [
        {
          "internalType": "string",
          "name": "_username",
          "type": "string"
        },
        {
          "internalType": "string",
          "name": "_userpassword",
          "type": "string"
        }
      ],
      "name": "signinUser",
      "outputs": [],
      "stateMutability": "nonpayable",
      "type": "function"
    },
    {
      "inputs": [],
      "name": "showUserDetails",
      "outputs": [],
      "stateMutability": "nonpayable",
      "type": "function"
    },
    {
      "inputs": [],
      "name": "showUserFullname",
      "outputs": [
        {
          "internalType": "string",
          "name": "",
          "type": "string"
        }
      ],
      "stateMutability": "view",
      "type": "function",
      "constant": true
    },
    {
      "inputs": [],
      "name": "showUserAge",
      "outputs": [
        {
          "internalType": "uint256",
          "name": "",
          "type": "uint256"
        }
      ],
      "stateMutability": "view",
      "type": "function",
      "constant": true
    },
    {
      "inputs": [],
      "name": "showUserDob",
      "outputs": [
        {
          "internalType": "string",
          "name": "",
          "type": "string"
        }
      ],
      "stateMutability": "view",
      "type": "function",
      "constant": true
    },
    {
      "inputs": [],
      "name": "showUserHouseAddr",
      "outputs": [
        {
          "internalType": "string",
          "name": "",
          "type": "string"
        }
      ],
      "stateMutability": "view",
      "type": "function",
      "constant": true
    },
    {
      "inputs": [],
      "name": "showUserMobileNum",
      "outputs": [
        {
          "internalType": "uint256",
          "name": "",
          "type": "uint256"
        }
      ],
      "stateMutability": "view",
      "type": "function",
      "constant": true
    },
    {
      "inputs": [],
      "name": "showUserAadhaarNum",
      "outputs": [
        {
          "internalType": "uint256",
          "name": "",
          "type": "uint256"
        }
      ],
      "stateMutability": "view",
      "type": "function",
      "constant": true
    },
    {
      "inputs": [
        {
          "internalType": "string",
          "name": "regNum",
          "type": "string"
        }
      ],
      "name": "addAadhaarDoc",
      "outputs": [],
      "stateMutability": "nonpayable",
      "type": "function"
    },
    {
      "inputs": [
        {
          "internalType": "address",
          "name": "userAddress",
          "type": "address"
        }
      ],
      "name": "getAadhaarDoc",
      "outputs": [],
      "stateMutability": "nonpayable",
      "type": "function"
    },
    {
      "inputs": [
        {
          "internalType": "string",
          "name": "regNum",
          "type": "string"
        }
      ],
      "name": "addBirthCertDoc",
      "outputs": [],
      "stateMutability": "nonpayable",
      "type": "function"
    },
    {
      "inputs": [
        {
          "internalType": "address",
          "name": "userAddress",
          "type": "address"
        }
      ],
      "name": "getBirthCertDoc",
      "outputs": [],
      "stateMutability": "nonpayable",
      "type": "function"
    },
    {
      "inputs": [],
      "name": "getTestStr",
      "outputs": [
        {
          "internalType": "string",
          "name": "",
          "type": "string"
        }
      ],
      "stateMutability": "view",
      "type": "function",
      "constant": true
    },
    {
      "inputs": [],
      "name": "getUsersCount",
      "outputs": [
        {
          "internalType": "uint256",
          "name": "",
          "type": "uint256"
        }
      ],
      "stateMutability": "view",
      "type": "function",
      "constant": true
    },
    {
      "inputs": [
        {
          "internalType": "address",
          "name": "requester",
          "type": "address"
        }
      ],
      "name": "getRequestedInfo",
      "outputs": [],
      "stateMutability": "nonpayable",
      "type": "function"
    },
    {
      "inputs": [
        {
          "internalType": "uint256",
          "name": "n",
          "type": "uint256"
        }
      ],
      "name": "getOrgDetails",
      "outputs": [],
      "stateMutability": "nonpayable",
      "type": "function"
    },
    {
      "inputs": [
        {
          "internalType": "uint256",
          "name": "num",
          "type": "uint256"
        }
      ],
      "name": "getOrgNameAt",
      "outputs": [
        {
          "internalType": "string",
          "name": "",
          "type": "string"
        }
      ],
      "stateMutability": "view",
      "type": "function",
      "constant": true
    },
    {
      "inputs": [],
      "name": "getDoc1",
      "outputs": [
        {
          "internalType": "uint256",
          "name": "",
          "type": "uint256"
        }
      ],
      "stateMutability": "view",
      "type": "function",
      "constant": true
    },
    {
      "inputs": [],
      "name": "getDoc2",
      "outputs": [
        {
          "internalType": "uint256",
          "name": "",
          "type": "uint256"
        }
      ],
      "stateMutability": "view",
      "type": "function",
      "constant": true
    },
    {
      "inputs": [
        {
          "internalType": "address",
          "name": "req_address",
          "type": "address"
        },
        {
          "internalType": "uint256",
          "name": "z",
          "type": "uint256"
        }
      ],
      "name": "setPermissionDoc1",
      "outputs": [],
      "stateMutability": "nonpayable",
      "type": "function"
    },
    {
      "inputs": [
        {
          "internalType": "address",
          "name": "req_address",
          "type": "address"
        },
        {
          "internalType": "uint256",
          "name": "z",
          "type": "uint256"
        }
      ],
      "name": "setPermissionDoc2",
      "outputs": [],
      "stateMutability": "nonpayable",
      "type": "function"
    },
    {
      "inputs": [
        {
          "internalType": "address",
          "name": "req_address",
          "type": "address"
        }
      ],
      "name": "getPermissionDoc1",
      "outputs": [],
      "stateMutability": "nonpayable",
      "type": "function"
    },
    {
      "inputs": [
        {
          "internalType": "address",
          "name": "req_address",
          "type": "address"
        }
      ],
      "name": "getPermissionDoc2",
      "outputs": [],
      "stateMutability": "nonpayable",
      "type": "function"
    }
  ],
  "bytecode": "0x608060405234801561001057600080fd5b50600080546001600160a01b03191633178155600f55612a7a806100356000396000f3fe608060405234801561001057600080fd5b506004361061046a5760003560e01c806383c01de71161024c578063a66cc42011610146578063d824a7be116100c3578063ec59190811610087578063ec591908146109ec578063ed24227414610a0c578063eecdd06514610a15578063f833483f14610a28578063f8f7e1dc14610a5a57600080fd5b8063d824a7be1461098f578063dc8c57bd14610997578063e0219f231461099f578063e6c4546c146109a7578063e8ee63af146109d957600080fd5b8063cee16d021161010a578063cee16d0214610930578063ceffe10314610943578063cff6ed091461094b578063d376ebc31461095e578063d6aec7ce1461098757600080fd5b8063a66cc420146108d7578063a8a03cef146108ea578063b7d0ac9d146108fd578063c1e1ae2b14610920578063ce74852c1461092857600080fd5b80639154f0ab116101d45780639c04623d116101985780639c04623d146108ae5780639c841ef8146108b65780639dfe146a146108bf578063a1c19a40146108c7578063a4a1e263146108cf57600080fd5b80639154f0ab1461086f5780639731335714610882578063996b57b71461088a57806399933f08146108925780639b9e5121146108a557600080fd5b80638c18f2f11161021b5780638c18f2f1146108185780638da5cb5b146108215780638e3e32e0146108345780639123a42014610847578063914556db1461084f57600080fd5b806383c01de7146107e0578063873c50f4146107e85780638946b494146108085780638bddc5051461081057600080fd5b806348e222ad116103685780636527a850116102e5578063723a6a69116102a9578063723a6a691461076b578063749cf99c1461077e57806374bfc957146107c557806378f751f2146107ce5780637ef1dbea146107d757600080fd5b80636527a8501461071e57806367eacec2146107275780636ba13a821461072f5780636d6cdb8f14610738578063716083f21461076357600080fd5b806359e13ffa1161032c57806359e13ffa146106d25780635d18a767146106da5780635e7e4e51146106fb5780635fb8ab57146107035780635fe497c31461071657600080fd5b806348e222ad146106705780634ab46a2c1461067857806351fc57ff1461068157806354e3731f146106895780635551b53b1461069157600080fd5b80631f3c99c3116103f65780633ac55993116103ba5780633ac55993146105fb5780633f462b2c1461060357806344060fd91461062e578063481f0ec41461064157806348dec2a71461064957600080fd5b80631f3c99c31461055d5780632108c1df14610565578063219f4dc9146105b55780632c1acdaa146105c857806338a9dfaf146105e857600080fd5b806312d43a511161043d57806312d43a51146104df578063163f7522146104e857806318025cfc146105245780631b55742b146105375780631cd4dad41461054a57600080fd5b80630d188e331461046f5780630e0c62471461048d57806311898110146104a257806312850836146104b9575b600080fd5b610477610a6d565b6040516104849190612386565b60405180910390f35b6104a061049b366004612443565b610afb565b005b6104ab60205481565b604051908152602001610484565b6104cc6104c73660046124c3565b610bf7565b60405161048497969594939291906124de565b6104ab600f5481565b6105146104f63660046124c3565b6001600160a01b031660009081526006602052604090205460011490565b6040519015158152602001610484565b6104776105323660046124c3565b610f61565b6104a0610545366004612443565b610f7a565b6104a0610558366004612443565b611076565b6104a06110cd565b6104a0610573366004612568565b60408051808201825292835260208084019283526001600160a01b039094166000908152600c8552818120338252909452909220905181559051600190910155565b6104a06105c3366004612443565b611120565b6104ab6105d63660046124c3565b60066020526000908152604090205481565b6104a06105f63660046124c3565b611157565b6104776111a5565b6104ab61061136600461259b565b805160208183018101805160048252928201919093012091525481565b6104a061063c3660046125d8565b6111b2565b6104776113b6565b61065c6106573660046124c3565b6113c3565b6040516104849897969594939291906126d8565b6104776116ab565b6104ab60225481565b6012546104ab565b61047761173d565b6106ba61069f36600461275a565b6010602052600090815260409020546001600160a01b031681565b6040516001600160a01b039091168152602001610484565b61047761174a565b6106ed6106e83660046124c3565b611759565b604051610484929190612773565b6020546104ab565b6104a06107113660046124c3565b611885565b6104776118cb565b6104ab60235481565b601b546104ab565b6104ab60115481565b6104ab61074636600461259b565b805160208183018101805160088252928201919093012091525481565b6104776118d8565b6104a06107793660046124c3565b6118e5565b6107b061078c3660046127a1565b600d6020908152600092835260408084209091529082529020805460019091015482565b60408051928352602083019190915201610484565b6104ab601d5481565b6104ab60125481565b6104ab601b5481565b6023546104ab565b6104ab6107f63660046124c3565b60056020526000908152604090205481565b61047761192a565b610477611939565b6104ab601a5481565b6000546106ba906001600160a01b031681565b6104a061084236600461259b565b611946565b601d546104ab565b6104ab61085d3660046124c3565b60096020526000908152604090205481565b6106ed61087d3660046124c3565b611a10565b610477611a2b565b610477611a3a565b6104a06108a03660046124c3565b611a49565b6104ab60185481565b6021546104ab565b6104ab60215481565b6104a0611a92565b610477611b7a565b6011546104ab565b6104a06108e53660046127d4565b611b87565b6104a06108f83660046124c3565b611d57565b61091061090b3660046128c3565b611d8c565b60405161048494939291906128ed565b6018546104ab565b601a546104ab565b61047761093e36600461275a565b611ed3565b610477611f92565b6104a06109593660046128c3565b611fa1565b6106ba61096c36600461275a565b6000908152601060205260409020546001600160a01b031690565b6104a0612002565b6104776120d0565b6022546104ab565b6104776120df565b6107b06109b53660046127a1565b600c6020908152600092835260408084209091529082529020805460019091015482565b6104a06109e73660046128c3565b6120ee565b6104ab6109fa3660046124c3565b600a6020526000908152604090205481565b6104ab60195481565b6104a0610a2336600461259b565b612148565b6107b0610a363660046127a1565b600e6020908152600092835260408084209091529082529020805460019091015482565b6104a0610a6836600461275a565b6121d9565b60148054610a7a9061292c565b80601f0160208091040260200160405190810160405280929190818152602001828054610aa69061292c565b8015610af35780601f10610ac857610100808354040283529160200191610af3565b820191906000526020600020905b815481529060010190602001808311610ad657829003601f168201915b505050505081565b81604051602001610b0c9190612966565b60408051601f19818403018152828252805160209182012033600090815260038352929092209192610b3f929101612982565b6040516020818303038152906040528051906020012014610b5f57600080fd5b80604051602001610b709190612966565b60408051601f19818403018152828252805160209182012033600090815260078352929092209192610ba6926001019101612982565b6040516020818303038152906040528051906020012014610bc657600080fd5b336000908152600a602052604090205415610be057600080fd5b5050336000908152600a6020526040902060019055565b601360205260009081526040902080548190610c129061292c565b80601f0160208091040260200160405190810160405280929190818152602001828054610c3e9061292c565b8015610c8b5780601f10610c6057610100808354040283529160200191610c8b565b820191906000526020600020905b815481529060010190602001808311610c6e57829003601f168201915b505050505090806001018054610ca09061292c565b80601f0160208091040260200160405190810160405280929190818152602001828054610ccc9061292c565b8015610d195780601f10610cee57610100808354040283529160200191610d19565b820191906000526020600020905b815481529060010190602001808311610cfc57829003601f168201915b505050505090806002018054610d2e9061292c565b80601f0160208091040260200160405190810160405280929190818152602001828054610d5a9061292c565b8015610da75780601f10610d7c57610100808354040283529160200191610da7565b820191906000526020600020905b815481529060010190602001808311610d8a57829003601f168201915b505050505090806003018054610dbc9061292c565b80601f0160208091040260200160405190810160405280929190818152602001828054610de89061292c565b8015610e355780601f10610e0a57610100808354040283529160200191610e35565b820191906000526020600020905b815481529060010190602001808311610e1857829003601f168201915b505050505090806004018054610e4a9061292c565b80601f0160208091040260200160405190810160405280929190818152602001828054610e769061292c565b8015610ec35780601f10610e9857610100808354040283529160200191610ec3565b820191906000526020600020905b815481529060010190602001808311610ea657829003601f168201915b505050505090806005018054610ed89061292c565b80601f0160208091040260200160405190810160405280929190818152602001828054610f049061292c565b8015610f515780601f10610f2657610100808354040283529160200191610f51565b820191906000526020600020905b815481529060010190602001808311610f3457829003601f168201915b5050505050908060060154905087565b60036020526000908152604090208054610a7a9061292c565b81604051602001610f8b9190612966565b60408051601f19818403018152828252805160209182012033600090815260038352929092209192610fbe929101612982565b6040516020818303038152906040528051906020012014610fde57600080fd5b80604051602001610fef9190612966565b60408051601f19818403018152828252805160209182012033600090815260028352929092209192611025926001019101612982565b604051602081830303815290604052805190602001201461104557600080fd5b336000908152600560205260409020541561105f57600080fd5b505033600090815260056020526040902060019055565b6040805180820182528381526020808201849052336000908152600782529290922081518051929391926110ad9284920190612216565b5060208281015180516110c69260018501920190612216565b5050505050565b336000908152600560205260409020546001036110f65733600090815260056020526040812055565b336000908152600a602052604090205460010361111e57336000908152600a60205260408120555b565b6040805180820182528381526020808201849052336000908152600282529290922081518051929391926110ad9284920190612216565b3360009081526005602052604090205460011461117357600080fd5b336000908152600c602090815260408083206001600160a01b0394909416835292905220805460225560010154602355565b60248054610a7a9061292c565b6008876040516111c29190612966565b9081526020016040518091039020546000146111dd57600080fd5b33600090815260096020526040902054156111f757600080fd5b336000908152600660205260409020541561121157600080fd5b6040805160e0810182528881526020808201899052818301889052606082018790526080820186905260a0820185905260c082018490523360009081526013825292909220815180519293919261126b9284920190612216565b5060208281015180516112849260018501920190612216565b50604082015180516112a0916002840191602090910190612216565b50606082015180516112bc916003840191602090910190612216565b50608082015180516112d8916004840191602090910190612216565b5060a082015180516112f4916005840191602090910190612216565b5060c0820151816006015590505061130c8787611076565b336000908152600360209081526040909120885161132c928a0190612216565b50600160088860405161133f9190612966565b908152604080516020928190038301902092909255336000908152600990915290812060019055600f80549161137483612a1d565b9091555050600f54600090815260106020526040812080546001600160a01b0319163317905560128054916113a883612a1d565b919050555050505050505050565b60158054610a7a9061292c565b6001602052600090815260409020805481906113de9061292c565b80601f016020809104026020016040519081016040528092919081815260200182805461140a9061292c565b80156114575780601f1061142c57610100808354040283529160200191611457565b820191906000526020600020905b81548152906001019060200180831161143a57829003601f168201915b50505050509080600101805461146c9061292c565b80601f01602080910402602001604051908101604052809291908181526020018280546114989061292c565b80156114e55780601f106114ba576101008083540402835291602001916114e5565b820191906000526020600020905b8154815290600101906020018083116114c857829003601f168201915b5050505050908060020180546114fa9061292c565b80601f01602080910402602001604051908101604052809291908181526020018280546115269061292c565b80156115735780601f1061154857610100808354040283529160200191611573565b820191906000526020600020905b81548152906001019060200180831161155657829003601f168201915b50505050509080600301549080600401805461158e9061292c565b80601f01602080910402602001604051908101604052809291908181526020018280546115ba9061292c565b80156116075780601f106115dc57610100808354040283529160200191611607565b820191906000526020600020905b8154815290600101906020018083116115ea57829003601f168201915b50505050509080600501805461161c9061292c565b80601f01602080910402602001604051908101604052809291908181526020018280546116489061292c565b80156116955780601f1061166a57610100808354040283529160200191611695565b820191906000526020600020905b81548152906001019060200180831161167857829003601f168201915b5050505050908060060154908060070154905088565b6060602480546116ba9061292c565b80601f01602080910402602001604051908101604052809291908181526020018280546116e69061292c565b80156117335780601f1061170857610100808354040283529160200191611733565b820191906000526020600020905b81548152906001019060200180831161171657829003601f168201915b5050505050905090565b601f8054610a7a9061292c565b6060601780546116ba9061292c565b6007602052600090815260409020805481906117749061292c565b80601f01602080910402602001604051908101604052809291908181526020018280546117a09061292c565b80156117ed5780601f106117c2576101008083540402835291602001916117ed565b820191906000526020600020905b8154815290600101906020018083116117d057829003601f168201915b5050505050908060010180546118029061292c565b80601f016020809104026020016040519081016040528092919081815260200182805461182e9061292c565b801561187b5780601f106118505761010080835404028352916020019161187b565b820191906000526020600020905b81548152906001019060200180831161185e57829003601f168201915b5050505050905082565b336000908152600a60205260409020546001146118a157600080fd5b336000908152600e602090815260408083206001600160a01b039490941683529290522054601a55565b60178054610a7a9061292c565b601e8054610a7a9061292c565b6001600160a01b0381166000908152600b6020908152604080832060018452909152902060020180546024919061191b9061292c565b61192692919061229a565b5050565b6060601e80546116ba9061292c565b60168054610a7a9061292c565b3360009081526005602052604090205460011461196257600080fd5b60408051608081018252600180825282518084018452600781526630b0b23430b0b960c91b602082810191909152808401918252838501869052600060608501819052338152600b82528581208482528252949094208351815590518051939491936119d5938501929190910190612216565b50604082015180516119f1916002840191602090910190612216565b50606091909101516003909101805460ff191691151591909117905550565b6002602052600090815260409020805481906117749061292c565b6060601580546116ba9061292c565b6060601480546116ba9061292c565b336000908152600a6020526040902054600114611a6557600080fd5b336000908152600e602090815260408083206001600160a01b039490941683529290522060010154601b55565b336000908152600a6020526040902054600114611aae57600080fd5b336000908152601360205260409020600201805460149190611acf9061292c565b611ada92919061229a565b50336000908152601360205260409020600301805460159190611afc9061292c565b611b0792919061229a565b50336000908152601360205260409020600401805460169190611b299061292c565b611b3492919061229a565b50336000908152601360205260409020600501805460179190611b569061292c565b611b6192919061229a565b5033600090815260136020526040902060060154601855565b601c8054610a7a9061292c565b600488604051611b979190612966565b908152602001604051809103902054600014611bb257600080fd5b3360009081526006602052604090205415611bcc57600080fd5b3360009081526009602052604090205415611be657600080fd5b604080516101008101825289815260208082018a9052818301899052606082018890526080820187905260a0820186905260c0820185905260e0820184905233600090815260018252929092208151805192939192611c489284920190612216565b506020828101518051611c619260018501920190612216565b5060408201518051611c7d916002840191602090910190612216565b506060820151600382015560808201518051611ca3916004840191602090910190612216565b5060a08201518051611cbf916005840191602090910190612216565b5060c0820151600682015560e090910151600790910155611ce08888611120565b3360009081526003602090815260409091208951611d00928b0190612216565b506001600489604051611d139190612966565b9081526040805160209281900383019020929092553360009081526006909152908120600190556011805491611d4883612a1d565b91905055505050505050505050565b6001600160a01b0381166000908152600b60209081526040808320600280855292529091200180546024919061191b9061292c565b600b60209081526000928352604080842090915290825290208054600182018054919291611db99061292c565b80601f0160208091040260200160405190810160405280929190818152602001828054611de59061292c565b8015611e325780601f10611e0757610100808354040283529160200191611e32565b820191906000526020600020905b815481529060010190602001808311611e1557829003601f168201915b505050505090806002018054611e479061292c565b80601f0160208091040260200160405190810160405280929190818152602001828054611e739061292c565b8015611ec05780601f10611e9557610100808354040283529160200191611ec0565b820191906000526020600020905b815481529060010190602001808311611ea357829003601f168201915b5050506003909301549192505060ff1684565b6000818152601060209081526040808320546001600160a01b0316808452601390925290912060020180546060929190611f0c9061292c565b80601f0160208091040260200160405190810160405280929190818152602001828054611f389061292c565b8015611f855780601f10611f5a57610100808354040283529160200191611f85565b820191906000526020600020905b815481529060010190602001808311611f6857829003601f168201915b5050505050915050919050565b6060601680546116ba9061292c565b33600090815260056020526040902054600114611fbd57600080fd5b336000818152600d602090815260408083206001600160a01b039690961683529481528482206001908101859055600e82528583209383529290529290922090910155565b3360009081526005602052604090205460011461201e57600080fd5b3360009081526001602052604090206002018054601c919061203f9061292c565b61204a92919061229a565b503360009081526001602052604090206003810154601d556004018054601e91906120749061292c565b61207f92919061229a565b503360009081526001602052604090206005018054601f91906120a19061292c565b6120ac92919061229a565b50336000908152600160209081526040909120600681015490915560070154602155565b6060601c80546116ba9061292c565b6060601f80546116ba9061292c565b3360009081526005602052604090205460011461210a57600080fd5b336000818152600d602090815260408083206001600160a01b03969096168352948152848220849055600e8152848220928252919091529190912055565b3360009081526005602052604090205460011461216457600080fd5b604080516080810182526002808252825180840184526009815268189a5c9d1a18d95c9d60ba1b602082810191909152808401918252838501869052600060608501819052338152600b8252858120938152928152939091208251815590518051929391926119d59260018501920190612216565b336000908152600560205260409020546001146121f557600080fd5b6000818152601060205260409020546001600160a01b031661192681611157565b8280546122229061292c565b90600052602060002090601f016020900481019282612244576000855561228a565b82601f1061225d57805160ff191683800117855561228a565b8280016001018555821561228a579182015b8281111561228a57825182559160200191906001019061226f565b50612296929150612315565b5090565b8280546122a69061292c565b90600052602060002090601f0160209004810192826122c8576000855561228a565b82601f106122d9578054855561228a565b8280016001018555821561228a57600052602060002091601f016020900482015b8281111561228a5782548255916001019190600101906122fa565b5b808211156122965760008155600101612316565b60005b8381101561234557818101518382015260200161232d565b83811115612354576000848401525b50505050565b6000815180845261237281602086016020860161232a565b601f01601f19169290920160200192915050565b602081526000612399602083018461235a565b9392505050565b634e487b7160e01b600052604160045260246000fd5b600082601f8301126123c757600080fd5b813567ffffffffffffffff808211156123e2576123e26123a0565b604051601f8301601f19908116603f0116810190828211818310171561240a5761240a6123a0565b8160405283815286602085880101111561242357600080fd5b836020870160208301376000602085830101528094505050505092915050565b6000806040838503121561245657600080fd5b823567ffffffffffffffff8082111561246e57600080fd5b61247a868387016123b6565b9350602085013591508082111561249057600080fd5b5061249d858286016123b6565b9150509250929050565b80356001600160a01b03811681146124be57600080fd5b919050565b6000602082840312156124d557600080fd5b612399826124a7565b60e0815260006124f160e083018a61235a565b8281036020840152612503818a61235a565b90508281036040840152612517818961235a565b9050828103606084015261252b818861235a565b9050828103608084015261253f818761235a565b905082810360a0840152612553818661235a565b9150508260c083015298975050505050505050565b60008060006060848603121561257d57600080fd5b612586846124a7565b95602085013595506040909401359392505050565b6000602082840312156125ad57600080fd5b813567ffffffffffffffff8111156125c457600080fd5b6125d0848285016123b6565b949350505050565b600080600080600080600060e0888a0312156125f357600080fd5b873567ffffffffffffffff8082111561260b57600080fd5b6126178b838c016123b6565b985060208a013591508082111561262d57600080fd5b6126398b838c016123b6565b975060408a013591508082111561264f57600080fd5b61265b8b838c016123b6565b965060608a013591508082111561267157600080fd5b61267d8b838c016123b6565b955060808a013591508082111561269357600080fd5b61269f8b838c016123b6565b945060a08a01359150808211156126b557600080fd5b506126c28a828b016123b6565b92505060c0880135905092959891949750929550565b60006101008083526126ec8184018c61235a565b90508281036020840152612700818b61235a565b90508281036040840152612714818a61235a565b9050876060840152828103608084015261272e818861235a565b905082810360a0840152612742818761235a565b60c0840195909552505060e001529695505050505050565b60006020828403121561276c57600080fd5b5035919050565b604081526000612786604083018561235a565b8281036020840152612798818561235a565b95945050505050565b600080604083850312156127b457600080fd5b6127bd836124a7565b91506127cb602084016124a7565b90509250929050565b600080600080600080600080610100898b0312156127f157600080fd5b883567ffffffffffffffff8082111561280957600080fd5b6128158c838d016123b6565b995060208b013591508082111561282b57600080fd5b6128378c838d016123b6565b985060408b013591508082111561284d57600080fd5b6128598c838d016123b6565b975060608b0135965060808b013591508082111561287657600080fd5b6128828c838d016123b6565b955060a08b013591508082111561289857600080fd5b506128a58b828c016123b6565b93505060c0890135915060e089013590509295985092959890939650565b600080604083850312156128d657600080fd5b6128df836124a7565b946020939093013593505050565b848152608060208201526000612906608083018661235a565b8281036040840152612918818661235a565b915050821515606083015295945050505050565b600181811c9082168061294057607f821691505b60208210810361296057634e487b7160e01b600052602260045260246000fd5b50919050565b6000825161297881846020870161232a565b9190910192915050565b600080835481600182811c91508083168061299e57607f831692505b602080841082036129bd57634e487b7160e01b86526022600452602486fd5b8180156129d157600181146129e257612a0f565b60ff19861689528489019650612a0f565b60008a81526020902060005b86811015612a075781548b8201529085019083016129ee565b505084890196505b509498975050505050505050565b600060018201612a3d57634e487b7160e01b600052601160045260246000fd5b506001019056fea2646970667358221220c9b09eb2432720aad87f1ec6a3a5b7877e4c0ca8d83b82343a103f152e9d153f64736f6c634300080d0033",
  "immutableReferences": {},
  "source": "// SPDX-License-Identifier: MIT\r\npragma solidity^0.8.13;\r\nimport \"./Govtorg.sol\";\r\nimport \"./Base.sol\";\r\ncontract User is Govtorg {\r\n    string public user_FullName;\r\n    uint public user_Age;\r\n    string public user_Dob;\r\n    string public user_HouseAddr;\r\n    uint public user_MobileNum;\r\n    uint public user_AadhaarNum;\r\n    uint public doc1;\r\n    uint public doc2;\r\n    string public testStr;\r\n    modifier onlySignedInUser {\r\n        require(userLoginStatus[msg.sender]==1);\r\n        _;\r\n    }\r\n    function registerUser(string memory _userEmailId, string memory _userpassword, \r\n    string memory _userFullName,uint _age,string memory _dateOfBirth,\r\n    string memory _userHouseAddr,uint _mobileNumber,uint _aadharNum) public {\r\n       require(userRegisteredStatus[_userEmailId]==0);\r\n       require(userRegisterStatus[msg.sender]==0);\r\n       require(govtorgRegisterStatus[msg.sender]==0);\r\n       userDetails[msg.sender] = User(_userEmailId,_userpassword,_userFullName,_age,_dateOfBirth,_userHouseAddr,_mobileNumber,_aadharNum);\r\n       addUserLogin(_userEmailId,_userpassword);\r\n       matchAddrToEmail[msg.sender] = _userEmailId;\r\n       userRegisteredStatus[_userEmailId] = 1;\r\n       userRegisterStatus[msg.sender] = 1;\r\n       usersCount++;\r\n    }\r\n    function addUserLogin(string memory _addUserName, string memory _addUserPassword) public {\r\n        userLogin[msg.sender] = UsersLoginIDs(_addUserName,_addUserPassword);\r\n    }\r\n    function signinUser(string memory _username, string memory _userpassword) public {\r\n        require(keccak256(abi.encodePacked(matchAddrToEmail[msg.sender]))==keccak256(abi.encodePacked(_username)));\r\n        require(keccak256(abi.encodePacked(userLogin[msg.sender].userp))==keccak256(abi.encodePacked(_userpassword)));\r\n        require(userLoginStatus[msg.sender]==0);\r\n        userLoginStatus[msg.sender] = 1;\r\n    }\r\n    function showUserDetails() public {\r\n        require(userLoginStatus[msg.sender] == 1);\r\n        user_FullName = userDetails[msg.sender].userFullName;\r\n        user_Age = userDetails[msg.sender].age;\r\n        user_Dob = userDetails[msg.sender].dateOfBirth;\r\n        user_HouseAddr = userDetails[msg.sender].userHouseAddress;\r\n        user_MobileNum = userDetails[msg.sender].mobileNumber;\r\n        user_AadhaarNum = userDetails[msg.sender].aadharNum;\r\n    }\r\n    function showUserFullname() public view returns(string memory) {\r\n        return user_FullName;\r\n    }\r\n    function showUserAge() public view returns(uint){\r\n        return user_Age;\r\n    }\r\n    function showUserDob() public view returns(string memory){\r\n        return user_Dob;\r\n    }\r\n    function showUserHouseAddr() public view returns(string memory){\r\n        return user_HouseAddr;\r\n    }\r\n    function showUserMobileNum() public view returns(uint){\r\n        return user_MobileNum;\r\n    }\r\n    function showUserAadhaarNum() public view returns(uint){\r\n        return user_AadhaarNum;\r\n    }\r\n    function addAadhaarDoc(string memory regNum) public onlySignedInUser{\r\n        myDocuments[msg.sender][1]=FileDoc(1,\"aadhaar\",regNum,false);\r\n    }\r\n    function getAadhaarDoc(address userAddress) public {\r\n        testStr = myDocuments[userAddress][1].regUniqueNum;\r\n    }\r\n    function addBirthCertDoc(string memory regNum) public onlySignedInUser{\r\n        myDocuments[msg.sender][2]=FileDoc(2,\"birthcert\",regNum,false);\r\n    }\r\n    function getBirthCertDoc(address userAddress) public {\r\n        testStr = myDocuments[userAddress][2].regUniqueNum;\r\n    }\r\n    function getTestStr() public view returns(string memory) {\r\n        return testStr;\r\n    }\r\n    function getUsersCount() public view returns(uint) {\r\n        return usersCount;\r\n    }\r\n    function getRequestedInfo(address requester) public onlySignedInUser {\r\n        doc1 = docsRequestedDB[msg.sender][requester].aadhaarproof;\r\n        doc2 = docsRequestedDB[msg.sender][requester].birthproof;\r\n    }\r\n    function getOrgDetails(uint n) public onlySignedInUser {\r\n        address nn = getOrgAt(n);\r\n        getRequestedInfo(nn);\r\n    }\r\n    function getOrgNameAt(uint num) public view returns(string memory){\r\n        address x = getOrgAt(num);\r\n        return govtorgDetails[x].govtOrgName;\r\n    }\r\n    function getDoc1() public view returns(uint) {\r\n        return doc1;\r\n    }\r\n    function getDoc2() public view returns(uint) {\r\n        return doc2;\r\n    }\r\n    \r\n    function setPermissionDoc1(address req_address,uint z) public onlySignedInUser{\r\n        _docs_permitted[msg.sender][req_address].aadhaarproof = z;\r\n        _docs_permitted_tb[req_address][msg.sender].aadhaarproof = z;\r\n    }\r\n    function setPermissionDoc2(address req_address,uint z) public onlySignedInUser{\r\n        _docs_permitted[msg.sender][req_address].birthproof = z;\r\n        _docs_permitted_tb[req_address][msg.sender].birthproof = z;\r\n    }\r\n    function getPermissionDoc1(address req_address) public onlySignedInGovtOrg {\r\n        d1 = _docs_permitted_tb[msg.sender][req_address].aadhaarproof;\r\n    }\r\n    function getPermissionDoc2(address req_address) public onlySignedInGovtOrg {\r\n        d2 = _docs_permitted_tb[msg.sender][req_address].birthproof;\r\n    }  \r\n}\r\n\r\n\r\n",
  "sourcePath": "/Users/rajesmanna/Downloads/Decentralized-Identity-management-master (3) 2/Decentralized-Identity-management-master/contracts/User.sol",
  "compiler": {
    "name": "solc",
    "version": "0.8.13+commit.abaa5c0e.Emscripten.clang"
  },
  "schemaVersion": "3.4.16",
  "updatedAt": "2025-04-11T15:32:37.362Z",
  "networkType": "ethereum",
  "devdoc": {
    "kind": "dev",
    "methods": {},
    "version": 1
  },
  "userdoc": {
    "kind": "user",
    "methods": {},
    "version": 1
  }
}